{
  "_format": "hh-sol-artifact-1",
  "contractName": "ThreeCardPoker",
  "sourceName": "contracts/ThreeCardPoker.sol",
  "abi": [
    {
      "inputs": [],
      "stateMutability": "nonpayable",
      "type": "constructor"
    },
    {
      "inputs": [
        {
          "internalType": "address",
          "name": "",
          "type": "address"
        }
      ],
      "name": "Bonus_Users",
      "outputs": [
        {
          "internalType": "uint256",
          "name": "",
          "type": "uint256"
        }
      ],
      "stateMutability": "view",
      "type": "function"
    },
    {
      "inputs": [
        {
          "internalType": "string",
          "name": "_name",
          "type": "string"
        }
      ],
      "name": "Play_poker",
      "outputs": [],
      "stateMutability": "payable",
      "type": "function"
    },
    {
      "inputs": [],
      "name": "Random_CardNum",
      "outputs": [
        {
          "internalType": "uint256",
          "name": "",
          "type": "uint256"
        }
      ],
      "stateMutability": "nonpayable",
      "type": "function"
    },
    {
      "inputs": [],
      "name": "Random_Suit",
      "outputs": [
        {
          "internalType": "uint256",
          "name": "",
          "type": "uint256"
        }
      ],
      "stateMutability": "nonpayable",
      "type": "function"
    },
    {
      "inputs": [],
      "name": "bonus",
      "outputs": [
        {
          "internalType": "uint256",
          "name": "",
          "type": "uint256"
        }
      ],
      "stateMutability": "view",
      "type": "function"
    },
    {
      "inputs": [],
      "name": "exit_game",
      "outputs": [],
      "stateMutability": "nonpayable",
      "type": "function"
    },
    {
      "inputs": [
        {
          "internalType": "uint256",
          "name": "",
          "type": "uint256"
        }
      ],
      "name": "exiting_Users",
      "outputs": [
        {
          "internalType": "address",
          "name": "",
          "type": "address"
        }
      ],
      "stateMutability": "view",
      "type": "function"
    },
    {
      "inputs": [],
      "name": "exiting_players_length",
      "outputs": [
        {
          "internalType": "uint256",
          "name": "",
          "type": "uint256"
        }
      ],
      "stateMutability": "view",
      "type": "function"
    },
    {
      "inputs": [],
      "name": "getContractBal",
      "outputs": [
        {
          "internalType": "uint256",
          "name": "",
          "type": "uint256"
        }
      ],
      "stateMutability": "view",
      "type": "function"
    },
    {
      "inputs": [],
      "name": "getOwnerBalance",
      "outputs": [
        {
          "internalType": "uint256",
          "name": "",
          "type": "uint256"
        }
      ],
      "stateMutability": "view",
      "type": "function"
    },
    {
      "inputs": [],
      "name": "getplayers_arr",
      "outputs": [
        {
          "components": [
            {
              "internalType": "string",
              "name": "name",
              "type": "string"
            },
            {
              "internalType": "address",
              "name": "player_address",
              "type": "address"
            },
            {
              "internalType": "uint256",
              "name": "card_suit1",
              "type": "uint256"
            },
            {
              "internalType": "uint256",
              "name": "card_num1",
              "type": "uint256"
            },
            {
              "internalType": "uint256",
              "name": "card_suit2",
              "type": "uint256"
            },
            {
              "internalType": "uint256",
              "name": "card_num2",
              "type": "uint256"
            },
            {
              "internalType": "uint256",
              "name": "card_suit3",
              "type": "uint256"
            },
            {
              "internalType": "uint256",
              "name": "card_num3",
              "type": "uint256"
            },
            {
              "internalType": "uint256",
              "name": "score",
              "type": "uint256"
            }
          ],
          "internalType": "struct ThreeCardPoker.Player[]",
          "name": "",
          "type": "tuple[]"
        }
      ],
      "stateMutability": "view",
      "type": "function"
    },
    {
      "inputs": [],
      "name": "getwinners_arr",
      "outputs": [
        {
          "internalType": "address[]",
          "name": "",
          "type": "address[]"
        }
      ],
      "stateMutability": "view",
      "type": "function"
    },
    {
      "inputs": [],
      "name": "manager",
      "outputs": [
        {
          "internalType": "address",
          "name": "",
          "type": "address"
        }
      ],
      "stateMutability": "view",
      "type": "function"
    },
    {
      "inputs": [],
      "name": "num_games_played",
      "outputs": [
        {
          "internalType": "uint256",
          "name": "",
          "type": "uint256"
        }
      ],
      "stateMutability": "view",
      "type": "function"
    },
    {
      "inputs": [
        {
          "internalType": "address",
          "name": "",
          "type": "address"
        }
      ],
      "name": "num_games_played_users",
      "outputs": [
        {
          "internalType": "uint256",
          "name": "",
          "type": "uint256"
        }
      ],
      "stateMutability": "view",
      "type": "function"
    },
    {
      "inputs": [],
      "name": "owners_bal",
      "outputs": [
        {
          "internalType": "uint256",
          "name": "",
          "type": "uint256"
        }
      ],
      "stateMutability": "view",
      "type": "function"
    },
    {
      "inputs": [
        {
          "internalType": "uint256",
          "name": "",
          "type": "uint256"
        }
      ],
      "name": "participents",
      "outputs": [
        {
          "internalType": "string",
          "name": "name",
          "type": "string"
        },
        {
          "internalType": "address",
          "name": "player_address",
          "type": "address"
        },
        {
          "internalType": "uint256",
          "name": "card_suit1",
          "type": "uint256"
        },
        {
          "internalType": "uint256",
          "name": "card_num1",
          "type": "uint256"
        },
        {
          "internalType": "uint256",
          "name": "card_suit2",
          "type": "uint256"
        },
        {
          "internalType": "uint256",
          "name": "card_num2",
          "type": "uint256"
        },
        {
          "internalType": "uint256",
          "name": "card_suit3",
          "type": "uint256"
        },
        {
          "internalType": "uint256",
          "name": "card_num3",
          "type": "uint256"
        },
        {
          "internalType": "uint256",
          "name": "score",
          "type": "uint256"
        }
      ],
      "stateMutability": "view",
      "type": "function"
    },
    {
      "inputs": [
        {
          "internalType": "uint256",
          "name": "val",
          "type": "uint256"
        }
      ],
      "name": "payplatformfee",
      "outputs": [],
      "stateMutability": "payable",
      "type": "function"
    },
    {
      "inputs": [],
      "name": "platformfee",
      "outputs": [
        {
          "internalType": "uint256",
          "name": "",
          "type": "uint256"
        }
      ],
      "stateMutability": "view",
      "type": "function"
    },
    {
      "inputs": [],
      "name": "random",
      "outputs": [
        {
          "internalType": "uint256",
          "name": "",
          "type": "uint256"
        }
      ],
      "stateMutability": "nonpayable",
      "type": "function"
    },
    {
      "inputs": [
        {
          "internalType": "address",
          "name": "",
          "type": "address"
        }
      ],
      "name": "registered_Users",
      "outputs": [
        {
          "internalType": "uint256",
          "name": "",
          "type": "uint256"
        }
      ],
      "stateMutability": "view",
      "type": "function"
    },
    {
      "inputs": [],
      "name": "select_Winner",
      "outputs": [],
      "stateMutability": "payable",
      "type": "function"
    },
    {
      "inputs": [
        {
          "internalType": "uint256",
          "name": "_bonus",
          "type": "uint256"
        }
      ],
      "name": "setBonus",
      "outputs": [],
      "stateMutability": "nonpayable",
      "type": "function"
    },
    {
      "inputs": [
        {
          "internalType": "uint256",
          "name": "pfee",
          "type": "uint256"
        }
      ],
      "name": "setPlatformfee",
      "outputs": [],
      "stateMutability": "nonpayable",
      "type": "function"
    },
    {
      "inputs": [],
      "name": "transfer_bet_from_game_to_acc",
      "outputs": [],
      "stateMutability": "payable",
      "type": "function"
    },
    {
      "inputs": [],
      "name": "transfer_bonus_from_contract_to_acc",
      "outputs": [],
      "stateMutability": "payable",
      "type": "function"
    },
    {
      "inputs": [
        {
          "internalType": "address",
          "name": "acc",
          "type": "address"
        },
        {
          "internalType": "uint256",
          "name": "val",
          "type": "uint256"
        }
      ],
      "name": "update_wallet",
      "outputs": [],
      "stateMutability": "nonpayable",
      "type": "function"
    },
    {
      "inputs": [
        {
          "internalType": "uint256",
          "name": "",
          "type": "uint256"
        }
      ],
      "name": "winners",
      "outputs": [
        {
          "internalType": "address",
          "name": "",
          "type": "address"
        }
      ],
      "stateMutability": "view",
      "type": "function"
    }
  ],
  "bytecode": "0x608060405260008060006101000a81548160ff0219169083151502179055506000600c5534801561002f57600080fd5b5033600a60006101000a81548173ffffffffffffffffffffffffffffffffffffffff021916908373ffffffffffffffffffffffffffffffffffffffff160217905550600060018190555060006002819055506000600381905550612411806100986000396000f3fe6080604052600436106101b75760003560e01c80636f5d4dbb116100ec578063a2fb11751161008a578063cf8ec40511610064578063cf8ec4051461057b578063ee3b99a8146105b8578063f4488f46146105e1578063f92fbcc01461060c576101b7565b8063a2fb1175146104f7578063a97f82f014610534578063cb1baa4314610571576101b7565b80637d0e415f116100c65780637d0e415f1461047b5780638ee7c1a6146104975780639b077072146104c2578063a17be9a5146104cc576101b7565b80636f5d4dbb1461040957806375b4d78c146104345780637b5009a81461045f576101b7565b80633ee88d6e116101595780635718b76b116101335780635718b76b1461035d578063590791f2146103885780635d9fa6fc146103b35780635ec01e4d146103de576101b7565b80633ee88d6e146102f057806343991da114610307578063481c6a7514610332576101b7565b806325ee61621161019557806325ee6162146102395780632ac75ab51461027657806330c5595b146102805780633bfcd7c5146102ab576101b7565b80630768eca9146101bc5780630b98f975146101e55780632095eb771461020e575b600080fd5b3480156101c857600080fd5b506101e360048036038101906101de91906117e0565b610649565b005b3480156101f157600080fd5b5061020c60048036038101906102079190611820565b610691565b005b34801561021a57600080fd5b506102236106f5565b6040516102309190611a82565b60405180910390f35b34801561024557600080fd5b50610260600480360381019061025b9190611aa4565b610883565b60405161026d9190611ae0565b60405180910390f35b61027e61089b565b005b34801561028c57600080fd5b50610295610de6565b6040516102a29190611baa565b60405180910390f35b3480156102b757600080fd5b506102d260048036038101906102cd9190611820565b610e74565b6040516102e799989796959493929190611c25565b60405180910390f35b3480156102fc57600080fd5b50610305610f7a565b005b34801561031357600080fd5b5061031c611031565b6040516103299190611ae0565b60405180910390f35b34801561033e57600080fd5b50610347611051565b6040516103549190611cb9565b60405180910390f35b34801561036957600080fd5b50610372611077565b60405161037f9190611ae0565b60405180910390f35b34801561039457600080fd5b5061039d611097565b6040516103aa9190611ae0565b60405180910390f35b3480156103bf57600080fd5b506103c86110d8565b6040516103d59190611ae0565b60405180910390f35b3480156103ea57600080fd5b506103f36110e0565b6040516104009190611ae0565b60405180910390f35b34801561041557600080fd5b5061041e611131565b60405161042b9190611ae0565b60405180910390f35b34801561044057600080fd5b50610449611178565b6040516104569190611ae0565b60405180910390f35b61047960048036038101906104749190611820565b61117e565b005b61049560048036038101906104909190611e09565b6111ea565b005b3480156104a357600080fd5b506104ac61133f565b6040516104b99190611ae0565b60405180910390f35b6104ca61134c565b005b3480156104d857600080fd5b506104e161141f565b6040516104ee9190611ae0565b60405180910390f35b34801561050357600080fd5b5061051e60048036038101906105199190611820565b611425565b60405161052b9190611cb9565b60405180910390f35b34801561054057600080fd5b5061055b60048036038101906105569190611aa4565b611464565b6040516105689190611ae0565b60405180910390f35b61057961147c565b005b34801561058757600080fd5b506105a2600480360381019061059d9190611820565b61154f565b6040516105af9190611cb9565b60405180910390f35b3480156105c457600080fd5b506105df60048036038101906105da9190611820565b61158e565b005b3480156105ed57600080fd5b506105f66115f2565b6040516106039190611ae0565b60405180910390f35b34801561061857600080fd5b50610633600480360381019061062e9190611aa4565b6115f8565b6040516106409190611ae0565b60405180910390f35b80600560008473ffffffffffffffffffffffffffffffffffffffff1673ffffffffffffffffffffffffffffffffffffffff168152602001908152602001600020819055505050565b600a60009054906101000a900473ffffffffffffffffffffffffffffffffffffffff1673ffffffffffffffffffffffffffffffffffffffff163373ffffffffffffffffffffffffffffffffffffffff16146106eb57600080fd5b8060038190555050565b6060600b805480602002602001604051908101604052809291908181526020016000905b8282101561087a57838290600052602060002090600902016040518061012001604052908160008201805461074d90611e81565b80601f016020809104026020016040519081016040528092919081815260200182805461077990611e81565b80156107c65780601f1061079b576101008083540402835291602001916107c6565b820191906000526020600020905b8154815290600101906020018083116107a957829003601f168201915b505050505081526020016001820160009054906101000a900473ffffffffffffffffffffffffffffffffffffffff1673ffffffffffffffffffffffffffffffffffffffff1673ffffffffffffffffffffffffffffffffffffffff16815260200160028201548152602001600382015481526020016004820154815260200160058201548152602001600682015481526020016007820154815260200160088201548152505081526020019060010190610719565b50505050905090565b60066020528060005260406000206000915090505481565b6004600b80549050146108e3576040517f08c379a00000000000000000000000000000000000000000000000000000000081526004016108da90611efe565b60405180910390fd5b6000805b600b80549050811015610a6657600080600b838154811061090b5761090a611f1e565b5b9060005260206000209060090201600701541461094d57600b828154811061093657610935611f1e565b5b906000526020600020906009020160070154610950565b600d5b6000600b848154811061096657610965611f1e565b5b906000526020600020906009020160050154146109a857600b838154811061099157610990611f1e565b5b9060005260206000209060090201600501546109ab565b600d5b6000600b85815481106109c1576109c0611f1e565b5b90600052602060002090600902016003015414610a0357600b84815481106109ec576109eb611f1e565b5b906000526020600020906009020160030154610a06565b600d5b610a109190611f7c565b610a1a9190611f7c565b905080600b8381548110610a3157610a30611f1e565b5b90600052602060002090600902016008018190555082811115610a52578092505b508080610a5e90611fb0565b9150506108e7565b5060005b600b80549050811015610b5f57600b8181548110610a8b57610a8a611f1e565b5b9060005260206000209060090201600801548203610b4c576009600b8281548110610ab957610ab8611f1e565b5b906000526020600020906009020160010160009054906101000a900473ffffffffffffffffffffffffffffffffffffffff169080600181540180825580915050600190039060005260206000200160009091909190916101000a81548173ffffffffffffffffffffffffffffffffffffffff021916908373ffffffffffffffffffffffffffffffffffffffff1602179055505b8080610b5790611fb0565b915050610a6a565b506001600660003373ffffffffffffffffffffffffffffffffffffffff1673ffffffffffffffffffffffffffffffffffffffff1681526020019081526020016000206000828254610bb09190611f7c565b925050819055506000600a600660003373ffffffffffffffffffffffffffffffffffffffff1673ffffffffffffffffffffffffffffffffffffffff16815260200190815260200160002054610c059190612027565b03610c6357600354600760003373ffffffffffffffffffffffffffffffffffffffff1673ffffffffffffffffffffffffffffffffffffffff1681526020019081526020016000206000828254610c5b9190611f7c565b925050819055505b6000151560008054906101000a900460ff16151503610de3576000476004541015610cb6576004546001546004610c9a9190612058565b47610ca5919061209a565b610caf919061209a565b9050610ce0565b6001546004610cc59190612058565b47600454610cd3919061209a565b610cdd919061209a565b90505b8060046000828254610cf29190611f7c565b92505081905550600060098054905082610d0c91906120ce565b905060005b600980549050811015610dc557816005600060098481548110610d3757610d36611f1e565b5b9060005260206000200160009054906101000a900473ffffffffffffffffffffffffffffffffffffffff1673ffffffffffffffffffffffffffffffffffffffff1673ffffffffffffffffffffffffffffffffffffffff1681526020019081526020016000206000828254610dab9190611f7c565b925050819055508080610dbd90611fb0565b915050610d11565b5060016000806101000a81548160ff02191690831515021790555050505b50565b60606009805480602002602001604051908101604052809291908181526020018280548015610e6a57602002820191906000526020600020905b8160009054906101000a900473ffffffffffffffffffffffffffffffffffffffff1673ffffffffffffffffffffffffffffffffffffffff1681526020019060010190808311610e20575b5050505050905090565b600b8181548110610e8457600080fd5b9060005260206000209060090201600091509050806000018054610ea790611e81565b80601f0160208091040260200160405190810160405280929190818152602001828054610ed390611e81565b8015610f205780601f10610ef557610100808354040283529160200191610f20565b820191906000526020600020905b815481529060010190602001808311610f0357829003601f168201915b5050505050908060010160009054906101000a900473ffffffffffffffffffffffffffffffffffffffff16908060020154908060030154908060040154908060050154908060060154908060070154908060080154905089565b60096000610f889190611610565b6008339080600181540180825580915050600190039060005260206000200160009091909190916101000a81548173ffffffffffffffffffffffffffffffffffffffff021916908373ffffffffffffffffffffffffffffffffffffffff16021790555060046008805490500361102f57600b60006110069190611631565b60008060006101000a81548160ff0219169083151502179055506008600061102e9190611610565b5b565b600080600d61103e6110e0565b6110489190612027565b90508091505090565b600a60009054906101000a900473ffffffffffffffffffffffffffffffffffffffff1681565b60008060046110846110e0565b61108e9190612027565b90508091505090565b6000600a60009054906101000a900473ffffffffffffffffffffffffffffffffffffffff1673ffffffffffffffffffffffffffffffffffffffff1631905090565b600047905090565b60006001600c60008282546110f59190611f7c565b925050819055504442600c5460405160200161111393929190612120565b6040516020818303038152906040528051906020012060001c905090565b6000600660003373ffffffffffffffffffffffffffffffffffffffff1673ffffffffffffffffffffffffffffffffffffffff16815260200190815260200160002054905090565b60035481565b600a60009054906101000a900473ffffffffffffffffffffffffffffffffffffffff1673ffffffffffffffffffffffffffffffffffffffff166108fc829081150290604051600060405180830381858888f193505050501580156111e6573d6000803e3d6000fd5b5050565b600b6040518061012001604052808381526020013373ffffffffffffffffffffffffffffffffffffffff168152602001611222611077565b815260200161122f611031565b815260200161123c611077565b8152602001611249611031565b8152602001611256611077565b8152602001611263611031565b81526020016000815250908060018154018082558091505060019003906000526020600020906009020160009091909190915060008201518160000190816112ab9190612309565b5060208201518160010160006101000a81548173ffffffffffffffffffffffffffffffffffffffff021916908373ffffffffffffffffffffffffffffffffffffffff16021790555060408201518160020155606082015181600301556080820151816004015560a0820151816005015560c0820151816006015560e082015181600701556101008201518160080155505050565b6000600880549050905090565b6000600760003373ffffffffffffffffffffffffffffffffffffffff1673ffffffffffffffffffffffffffffffffffffffff1681526020019081526020016000205490503373ffffffffffffffffffffffffffffffffffffffff166108fc829081150290604051600060405180830381858888f193505050501580156113d6573d6000803e3d6000fd5b506000600760003373ffffffffffffffffffffffffffffffffffffffff1673ffffffffffffffffffffffffffffffffffffffff1681526020019081526020016000208190555050565b60025481565b6009818154811061143557600080fd5b906000526020600020016000915054906101000a900473ffffffffffffffffffffffffffffffffffffffff1681565b60056020528060005260406000206000915090505481565b6000600560003373ffffffffffffffffffffffffffffffffffffffff1673ffffffffffffffffffffffffffffffffffffffff1681526020019081526020016000205490503373ffffffffffffffffffffffffffffffffffffffff166108fc829081150290604051600060405180830381858888f19350505050158015611506573d6000803e3d6000fd5b506000600560003373ffffffffffffffffffffffffffffffffffffffff1673ffffffffffffffffffffffffffffffffffffffff1681526020019081526020016000208190555050565b6008818154811061155f57600080fd5b906000526020600020016000915054906101000a900473ffffffffffffffffffffffffffffffffffffffff1681565b600a60009054906101000a900473ffffffffffffffffffffffffffffffffffffffff1673ffffffffffffffffffffffffffffffffffffffff163373ffffffffffffffffffffffffffffffffffffffff16146115e857600080fd5b8060018190555050565b60015481565b60076020528060005260406000206000915090505481565b508054600082559060005260206000209081019061162e9190611655565b50565b50805460008255600902906000526020600020908101906116529190611672565b50565b5b8082111561166e576000816000905550600101611656565b5090565b5b808211156116f4576000808201600061168c91906116f8565b6001820160006101000a81549073ffffffffffffffffffffffffffffffffffffffff0219169055600282016000905560038201600090556004820160009055600582016000905560068201600090556007820160009055600882016000905550600901611673565b5090565b50805461170490611e81565b6000825580601f106117165750611735565b601f0160209004906000526020600020908101906117349190611655565b5b50565b6000604051905090565b600080fd5b600080fd5b600073ffffffffffffffffffffffffffffffffffffffff82169050919050565b60006117778261174c565b9050919050565b6117878161176c565b811461179257600080fd5b50565b6000813590506117a48161177e565b92915050565b6000819050919050565b6117bd816117aa565b81146117c857600080fd5b50565b6000813590506117da816117b4565b92915050565b600080604083850312156117f7576117f6611742565b5b600061180585828601611795565b9250506020611816858286016117cb565b9150509250929050565b60006020828403121561183657611835611742565b5b6000611844848285016117cb565b91505092915050565b600081519050919050565b600082825260208201905092915050565b6000819050602082019050919050565b600081519050919050565b600082825260208201905092915050565b60005b838110156118b3578082015181840152602081019050611898565b60008484015250505050565b6000601f19601f8301169050919050565b60006118db82611879565b6118e58185611884565b93506118f5818560208601611895565b6118fe816118bf565b840191505092915050565b6119128161176c565b82525050565b611921816117aa565b82525050565b600061012083016000830151848203600086015261194582826118d0565b915050602083015161195a6020860182611909565b50604083015161196d6040860182611918565b5060608301516119806060860182611918565b5060808301516119936080860182611918565b5060a08301516119a660a0860182611918565b5060c08301516119b960c0860182611918565b5060e08301516119cc60e0860182611918565b506101008301516119e1610100860182611918565b508091505092915050565b60006119f88383611927565b905092915050565b6000602082019050919050565b6000611a188261184d565b611a228185611858565b935083602082028501611a3485611869565b8060005b85811015611a705784840389528151611a5185826119ec565b9450611a5c83611a00565b925060208a01995050600181019050611a38565b50829750879550505050505092915050565b60006020820190508181036000830152611a9c8184611a0d565b905092915050565b600060208284031215611aba57611ab9611742565b5b6000611ac884828501611795565b91505092915050565b611ada816117aa565b82525050565b6000602082019050611af56000830184611ad1565b92915050565b600081519050919050565b600082825260208201905092915050565b6000819050602082019050919050565b6000611b338383611909565b60208301905092915050565b6000602082019050919050565b6000611b5782611afb565b611b618185611b06565b9350611b6c83611b17565b8060005b83811015611b9d578151611b848882611b27565b9750611b8f83611b3f565b925050600181019050611b70565b5085935050505092915050565b60006020820190508181036000830152611bc48184611b4c565b905092915050565b600082825260208201905092915050565b6000611be882611879565b611bf28185611bcc565b9350611c02818560208601611895565b611c0b816118bf565b840191505092915050565b611c1f8161176c565b82525050565b6000610120820190508181036000830152611c40818c611bdd565b9050611c4f602083018b611c16565b611c5c604083018a611ad1565b611c696060830189611ad1565b611c766080830188611ad1565b611c8360a0830187611ad1565b611c9060c0830186611ad1565b611c9d60e0830185611ad1565b611cab610100830184611ad1565b9a9950505050505050505050565b6000602082019050611cce6000830184611c16565b92915050565b600080fd5b600080fd5b7f4e487b7100000000000000000000000000000000000000000000000000000000600052604160045260246000fd5b611d16826118bf565b810181811067ffffffffffffffff82111715611d3557611d34611cde565b5b80604052505050565b6000611d48611738565b9050611d548282611d0d565b919050565b600067ffffffffffffffff821115611d7457611d73611cde565b5b611d7d826118bf565b9050602081019050919050565b82818337600083830152505050565b6000611dac611da784611d59565b611d3e565b905082815260208101848484011115611dc857611dc7611cd9565b5b611dd3848285611d8a565b509392505050565b600082601f830112611df057611def611cd4565b5b8135611e00848260208601611d99565b91505092915050565b600060208284031215611e1f57611e1e611742565b5b600082013567ffffffffffffffff811115611e3d57611e3c611747565b5b611e4984828501611ddb565b91505092915050565b7f4e487b7100000000000000000000000000000000000000000000000000000000600052602260045260246000fd5b60006002820490506001821680611e9957607f821691505b602082108103611eac57611eab611e52565b5b50919050565b7f34207061727469636970616e7473206f6e6c7920616c6c6f7765642e2e2e0000600082015250565b6000611ee8601e83611bcc565b9150611ef382611eb2565b602082019050919050565b60006020820190508181036000830152611f1781611edb565b9050919050565b7f4e487b7100000000000000000000000000000000000000000000000000000000600052603260045260246000fd5b7f4e487b7100000000000000000000000000000000000000000000000000000000600052601160045260246000fd5b6000611f87826117aa565b9150611f92836117aa565b9250828201905080821115611faa57611fa9611f4d565b5b92915050565b6000611fbb826117aa565b91507fffffffffffffffffffffffffffffffffffffffffffffffffffffffffffffffff8203611fed57611fec611f4d565b5b600182019050919050565b7f4e487b7100000000000000000000000000000000000000000000000000000000600052601260045260246000fd5b6000612032826117aa565b915061203d836117aa565b92508261204d5761204c611ff8565b5b828206905092915050565b6000612063826117aa565b915061206e836117aa565b925082820261207c816117aa565b9150828204841483151761209357612092611f4d565b5b5092915050565b60006120a5826117aa565b91506120b0836117aa565b92508282039050818111156120c8576120c7611f4d565b5b92915050565b60006120d9826117aa565b91506120e4836117aa565b9250826120f4576120f3611ff8565b5b828204905092915050565b6000819050919050565b61211a612115826117aa565b6120ff565b82525050565b600061212c8286612109565b60208201915061213c8285612109565b60208201915061214c8284612109565b602082019150819050949350505050565b60008190508160005260206000209050919050565b60006020601f8301049050919050565b600082821b905092915050565b6000600883026121bf7fffffffffffffffffffffffffffffffffffffffffffffffffffffffffffffffff82612182565b6121c98683612182565b95508019841693508086168417925050509392505050565b6000819050919050565b60006122066122016121fc846117aa565b6121e1565b6117aa565b9050919050565b6000819050919050565b612220836121eb565b61223461222c8261220d565b84845461218f565b825550505050565b600090565b61224961223c565b612254818484612217565b505050565b5b818110156122785761226d600082612241565b60018101905061225a565b5050565b601f8211156122bd5761228e8161215d565b61229784612172565b810160208510156122a6578190505b6122ba6122b285612172565b830182612259565b50505b505050565b600082821c905092915050565b60006122e0600019846008026122c2565b1980831691505092915050565b60006122f983836122cf565b9150826002028217905092915050565b61231282611879565b67ffffffffffffffff81111561232b5761232a611cde565b5b6123358254611e81565b61234082828561227c565b600060209050601f8311600181146123735760008415612361578287015190505b61236b85826122ed565b8655506123d3565b601f1984166123818661215d565b60005b828110156123a957848901518255600182019150602085019450602081019050612384565b868310156123c657848901516123c2601f8916826122cf565b8355505b6001600288020188555050505b50505050505056fea2646970667358221220882391892cc13f31d1278baebd0dbd6cee8c54073b95d02986cf7febf4980ba264736f6c63430008130033",
  "linkReferences": {},
  "deployedLinkReferences": {}
}