{
  "_format": "hh-sol-artifact-1",
  "contractName": "ThreeCardPoker",
  "sourceName": "contracts/ThreeCardPoker.sol",
  "abi": [
    {
      "inputs": [],
      "stateMutability": "nonpayable",
      "type": "constructor"
    },
    {
      "inputs": [
        {
          "internalType": "string",
          "name": "_name",
          "type": "string"
        },
        {
          "internalType": "uint256",
          "name": "pfee",
          "type": "uint256"
        }
      ],
      "name": "Play_poker",
      "outputs": [],
      "stateMutability": "payable",
      "type": "function"
    },
    {
      "inputs": [],
      "name": "Random_CardNum",
      "outputs": [
        {
          "internalType": "uint256",
          "name": "",
          "type": "uint256"
        }
      ],
      "stateMutability": "nonpayable",
      "type": "function"
    },
    {
      "inputs": [],
      "name": "Random_Suit",
      "outputs": [
        {
          "internalType": "uint256",
          "name": "",
          "type": "uint256"
        }
      ],
      "stateMutability": "nonpayable",
      "type": "function"
    },
    {
      "inputs": [],
      "name": "bonus",
      "outputs": [
        {
          "internalType": "string",
          "name": "",
          "type": "string"
        }
      ],
      "stateMutability": "view",
      "type": "function"
    },
    {
      "inputs": [],
      "name": "exit_game",
      "outputs": [],
      "stateMutability": "nonpayable",
      "type": "function"
    },
    {
      "inputs": [],
      "name": "getContractBal",
      "outputs": [
        {
          "internalType": "uint256",
          "name": "",
          "type": "uint256"
        }
      ],
      "stateMutability": "view",
      "type": "function"
    },
    {
      "inputs": [],
      "name": "getOwnerBalance",
      "outputs": [
        {
          "internalType": "uint256",
          "name": "",
          "type": "uint256"
        }
      ],
      "stateMutability": "view",
      "type": "function"
    },
    {
      "inputs": [],
      "name": "getplayers_arr",
      "outputs": [
        {
          "components": [
            {
              "internalType": "string",
              "name": "name",
              "type": "string"
            },
            {
              "internalType": "address",
              "name": "player_address",
              "type": "address"
            },
            {
              "internalType": "uint256",
              "name": "card_suit1",
              "type": "uint256"
            },
            {
              "internalType": "uint256",
              "name": "card_num1",
              "type": "uint256"
            },
            {
              "internalType": "uint256",
              "name": "card_suit2",
              "type": "uint256"
            },
            {
              "internalType": "uint256",
              "name": "card_num2",
              "type": "uint256"
            },
            {
              "internalType": "uint256",
              "name": "card_suit3",
              "type": "uint256"
            },
            {
              "internalType": "uint256",
              "name": "card_num3",
              "type": "uint256"
            },
            {
              "internalType": "uint256",
              "name": "score",
              "type": "uint256"
            }
          ],
          "internalType": "struct ThreeCardPoker.Player[]",
          "name": "",
          "type": "tuple[]"
        }
      ],
      "stateMutability": "view",
      "type": "function"
    },
    {
      "inputs": [],
      "name": "getwinners_arr",
      "outputs": [
        {
          "internalType": "address[]",
          "name": "",
          "type": "address[]"
        }
      ],
      "stateMutability": "view",
      "type": "function"
    },
    {
      "inputs": [],
      "name": "manager",
      "outputs": [
        {
          "internalType": "address",
          "name": "",
          "type": "address"
        }
      ],
      "stateMutability": "view",
      "type": "function"
    },
    {
      "inputs": [],
      "name": "owners_bal",
      "outputs": [
        {
          "internalType": "uint256",
          "name": "",
          "type": "uint256"
        }
      ],
      "stateMutability": "view",
      "type": "function"
    },
    {
      "inputs": [
        {
          "internalType": "uint256",
          "name": "",
          "type": "uint256"
        }
      ],
      "name": "participents",
      "outputs": [
        {
          "internalType": "string",
          "name": "name",
          "type": "string"
        },
        {
          "internalType": "address",
          "name": "player_address",
          "type": "address"
        },
        {
          "internalType": "uint256",
          "name": "card_suit1",
          "type": "uint256"
        },
        {
          "internalType": "uint256",
          "name": "card_num1",
          "type": "uint256"
        },
        {
          "internalType": "uint256",
          "name": "card_suit2",
          "type": "uint256"
        },
        {
          "internalType": "uint256",
          "name": "card_num2",
          "type": "uint256"
        },
        {
          "internalType": "uint256",
          "name": "card_suit3",
          "type": "uint256"
        },
        {
          "internalType": "uint256",
          "name": "card_num3",
          "type": "uint256"
        },
        {
          "internalType": "uint256",
          "name": "score",
          "type": "uint256"
        }
      ],
      "stateMutability": "view",
      "type": "function"
    },
    {
      "inputs": [
        {
          "internalType": "uint256",
          "name": "val",
          "type": "uint256"
        }
      ],
      "name": "payplatformfee",
      "outputs": [],
      "stateMutability": "payable",
      "type": "function"
    },
    {
      "inputs": [],
      "name": "platformfee",
      "outputs": [
        {
          "internalType": "string",
          "name": "",
          "type": "string"
        }
      ],
      "stateMutability": "view",
      "type": "function"
    },
    {
      "inputs": [],
      "name": "random",
      "outputs": [
        {
          "internalType": "uint256",
          "name": "",
          "type": "uint256"
        }
      ],
      "stateMutability": "nonpayable",
      "type": "function"
    },
    {
      "inputs": [
        {
          "internalType": "address",
          "name": "",
          "type": "address"
        }
      ],
      "name": "registered_Users",
      "outputs": [
        {
          "internalType": "uint256",
          "name": "",
          "type": "uint256"
        }
      ],
      "stateMutability": "view",
      "type": "function"
    },
    {
      "inputs": [],
      "name": "select_Winner",
      "outputs": [],
      "stateMutability": "payable",
      "type": "function"
    },
    {
      "inputs": [
        {
          "internalType": "string",
          "name": "_bonus",
          "type": "string"
        }
      ],
      "name": "setBonus",
      "outputs": [],
      "stateMutability": "nonpayable",
      "type": "function"
    },
    {
      "inputs": [
        {
          "internalType": "string",
          "name": "pfee",
          "type": "string"
        }
      ],
      "name": "setPlatformfee",
      "outputs": [],
      "stateMutability": "nonpayable",
      "type": "function"
    },
    {
      "inputs": [],
      "name": "transfer_bet_from_game_to_acc",
      "outputs": [],
      "stateMutability": "payable",
      "type": "function"
    },
    {
      "inputs": [
        {
          "internalType": "address",
          "name": "acc",
          "type": "address"
        },
        {
          "internalType": "uint256",
          "name": "val",
          "type": "uint256"
        }
      ],
      "name": "update_wallet",
      "outputs": [],
      "stateMutability": "nonpayable",
      "type": "function"
    },
    {
      "inputs": [
        {
          "internalType": "uint256",
          "name": "",
          "type": "uint256"
        }
      ],
      "name": "winners",
      "outputs": [
        {
          "internalType": "address",
          "name": "",
          "type": "address"
        }
      ],
      "stateMutability": "view",
      "type": "function"
    }
  ],
  "bytecode": "0x608060405260008060006101000a81548160ff02191690831515021790555060006009553480156200003057600080fd5b5033600760006101000a81548173ffffffffffffffffffffffffffffffffffffffff021916908373ffffffffffffffffffffffffffffffffffffffff1602179055506040518060400160405280600181526020017f300000000000000000000000000000000000000000000000000000000000000081525060019081620000b8919062000388565b5060006002819055506040518060400160405280600181526020017f30000000000000000000000000000000000000000000000000000000000000008152506003908162000107919062000388565b506200046f565b600081519050919050565b7f4e487b7100000000000000000000000000000000000000000000000000000000600052604160045260246000fd5b7f4e487b7100000000000000000000000000000000000000000000000000000000600052602260045260246000fd5b600060028204905060018216806200019057607f821691505b602082108103620001a657620001a562000148565b5b50919050565b60008190508160005260206000209050919050565b60006020601f8301049050919050565b600082821b905092915050565b600060088302620002107fffffffffffffffffffffffffffffffffffffffffffffffffffffffffffffffff82620001d1565b6200021c8683620001d1565b95508019841693508086168417925050509392505050565b6000819050919050565b6000819050919050565b600062000269620002636200025d8462000234565b6200023e565b62000234565b9050919050565b6000819050919050565b620002858362000248565b6200029d620002948262000270565b848454620001de565b825550505050565b600090565b620002b4620002a5565b620002c18184846200027a565b505050565b5b81811015620002e957620002dd600082620002aa565b600181019050620002c7565b5050565b601f82111562000338576200030281620001ac565b6200030d84620001c1565b810160208510156200031d578190505b620003356200032c85620001c1565b830182620002c6565b50505b505050565b600082821c905092915050565b60006200035d600019846008026200033d565b1980831691505092915050565b60006200037883836200034a565b9150826002028217905092915050565b62000393826200010e565b67ffffffffffffffff811115620003af57620003ae62000119565b5b620003bb825462000177565b620003c8828285620002ed565b600060209050601f831160018114620004005760008415620003eb578287015190505b620003f785826200036a565b86555062000467565b601f1984166200041086620001ac565b60005b828110156200043a5784890151825560018201915060208501945060208101905062000413565b868310156200045a578489015162000456601f8916826200034a565b8355505b6001600288020188555050505b505050505050565b612096806200047f6000396000f3fe6080604052600436106101355760003560e01c80635d9fa6fc116100ab578063a1ea26b91161006f578063a1ea26b9146103bc578063a2fb1175146103e5578063a97f82f014610422578063c17a6e3d1461045f578063cb1baa431461047b578063f4488f461461048557610135565b80635d9fa6fc146102f45780635ec01e4d1461031f57806375b4d78c1461034a5780637b5009a814610375578063a17be9a51461039157610135565b80633bfcd7c5116100fd5780633bfcd7c5146101ec5780633ee88d6e1461023157806343991da114610248578063481c6a75146102735780635718b76b1461029e578063590791f2146102c957610135565b80630768eca91461013a5780632095eb77146101635780632ac75ab51461018e57806330c5595b146101985780633b99647b146101c3575b600080fd5b34801561014657600080fd5b50610161600480360381019061015c9190611429565b6104b0565b005b34801561016f57600080fd5b506101786104f8565b604051610185919061169e565b60405180910390f35b610196610686565b005b3480156101a457600080fd5b506101ad610a9c565b6040516101ba919061176f565b60405180910390f35b3480156101cf57600080fd5b506101ea60048036038101906101e591906118c6565b610b2a565b005b3480156101f857600080fd5b50610213600480360381019061020e919061190f565b610b97565b604051610228999897969594939291906119a4565b60405180910390f35b34801561023d57600080fd5b50610246610c9d565b005b34801561025457600080fd5b5061025d610cd5565b60405161026a9190611a38565b60405180910390f35b34801561027f57600080fd5b50610288610cf5565b6040516102959190611a53565b60405180910390f35b3480156102aa57600080fd5b506102b3610d1b565b6040516102c09190611a38565b60405180910390f35b3480156102d557600080fd5b506102de610d3b565b6040516102eb9190611a38565b60405180910390f35b34801561030057600080fd5b50610309610d7c565b6040516103169190611a38565b60405180910390f35b34801561032b57600080fd5b50610334610d84565b6040516103419190611a38565b60405180910390f35b34801561035657600080fd5b5061035f610dd5565b60405161036c9190611a6e565b60405180910390f35b61038f600480360381019061038a919061190f565b610e63565b005b34801561039d57600080fd5b506103a6610ecf565b6040516103b39190611a38565b60405180910390f35b3480156103c857600080fd5b506103e360048036038101906103de91906118c6565b610ed5565b005b3480156103f157600080fd5b5061040c6004803603810190610407919061190f565b610f42565b6040516104199190611a53565b60405180910390f35b34801561042e57600080fd5b5061044960048036038101906104449190611a90565b610f81565b6040516104569190611a38565b60405180910390f35b61047960048036038101906104749190611abd565b610f99565b005b6104836110f8565b005b34801561049157600080fd5b5061049a6111cb565b6040516104a79190611a6e565b60405180910390f35b80600560008473ffffffffffffffffffffffffffffffffffffffff1673ffffffffffffffffffffffffffffffffffffffff168152602001908152602001600020819055505050565b60606008805480602002602001604051908101604052809291908181526020016000905b8282101561067d57838290600052602060002090600902016040518061012001604052908160008201805461055090611b48565b80601f016020809104026020016040519081016040528092919081815260200182805461057c90611b48565b80156105c95780601f1061059e576101008083540402835291602001916105c9565b820191906000526020600020905b8154815290600101906020018083116105ac57829003601f168201915b505050505081526020016001820160009054906101000a900473ffffffffffffffffffffffffffffffffffffffff1673ffffffffffffffffffffffffffffffffffffffff1673ffffffffffffffffffffffffffffffffffffffff1681526020016002820154815260200160038201548152602001600482015481526020016005820154815260200160068201548152602001600782015481526020016008820154815250508152602001906001019061051c565b50505050905090565b6004600880549050146106ce576040517f08c379a00000000000000000000000000000000000000000000000000000000081526004016106c590611bc5565b60405180910390fd5b6000805b60088054905081101561085157600080600883815481106106f6576106f5611be5565b5b90600052602060002090600902016007015414610738576008828154811061072157610720611be5565b5b90600052602060002090600902016007015461073b565b600d5b60006008848154811061075157610750611be5565b5b90600052602060002090600902016005015414610793576008838154811061077c5761077b611be5565b5b906000526020600020906009020160050154610796565b600d5b6000600885815481106107ac576107ab611be5565b5b906000526020600020906009020160030154146107ee57600884815481106107d7576107d6611be5565b5b9060005260206000209060090201600301546107f1565b600d5b6107fb9190611c43565b6108059190611c43565b9050806008838154811061081c5761081b611be5565b5b9060005260206000209060090201600801819055508281111561083d578092505b50808061084990611c77565b9150506106d2565b5060005b60088054905081101561094a576008818154811061087657610875611be5565b5b9060005260206000209060090201600801548203610937576006600882815481106108a4576108a3611be5565b5b906000526020600020906009020160010160009054906101000a900473ffffffffffffffffffffffffffffffffffffffff169080600181540180825580915050600190039060005260206000200160009091909190916101000a81548173ffffffffffffffffffffffffffffffffffffffff021916908373ffffffffffffffffffffffffffffffffffffffff1602179055505b808061094290611c77565b915050610855565b506000151560008054906101000a900460ff16151503610a99576000476004541015610985576004544761097e9190611cbf565b9050610996565b476004546109939190611cbf565b90505b80600460008282546109a89190611c43565b925050819055506000600680549050826109c29190611d22565b905060005b600680549050811015610a7b578160056000600684815481106109ed576109ec611be5565b5b9060005260206000200160009054906101000a900473ffffffffffffffffffffffffffffffffffffffff1673ffffffffffffffffffffffffffffffffffffffff1673ffffffffffffffffffffffffffffffffffffffff1681526020019081526020016000206000828254610a619190611c43565b925050819055508080610a7390611c77565b9150506109c7565b5060016000806101000a81548160ff02191690831515021790555050505b50565b60606006805480602002602001604051908101604052809291908181526020018280548015610b2057602002820191906000526020600020905b8160009054906101000a900473ffffffffffffffffffffffffffffffffffffffff1673ffffffffffffffffffffffffffffffffffffffff1681526020019060010190808311610ad6575b5050505050905090565b600760009054906101000a900473ffffffffffffffffffffffffffffffffffffffff1673ffffffffffffffffffffffffffffffffffffffff163373ffffffffffffffffffffffffffffffffffffffff1614610b8457600080fd5b8060039081610b939190611eff565b5050565b60088181548110610ba757600080fd5b9060005260206000209060090201600091509050806000018054610bca90611b48565b80601f0160208091040260200160405190810160405280929190818152602001828054610bf690611b48565b8015610c435780601f10610c1857610100808354040283529160200191610c43565b820191906000526020600020905b815481529060010190602001808311610c2657829003601f168201915b5050505050908060010160009054906101000a900473ffffffffffffffffffffffffffffffffffffffff16908060020154908060030154908060040154908060050154908060060154908060070154908060080154905089565b60066000610cab9190611259565b60086000610cb9919061127a565b60008060006101000a81548160ff021916908315150217905550565b600080600d610ce2610d84565b610cec9190611fd1565b90508091505090565b600760009054906101000a900473ffffffffffffffffffffffffffffffffffffffff1681565b6000806004610d28610d84565b610d329190611fd1565b90508091505090565b6000600760009054906101000a900473ffffffffffffffffffffffffffffffffffffffff1673ffffffffffffffffffffffffffffffffffffffff1631905090565b600047905090565b6000600160096000828254610d999190611c43565b925050819055504442600954604051602001610db793929190612023565b6040516020818303038152906040528051906020012060001c905090565b60038054610de290611b48565b80601f0160208091040260200160405190810160405280929190818152602001828054610e0e90611b48565b8015610e5b5780601f10610e3057610100808354040283529160200191610e5b565b820191906000526020600020905b815481529060010190602001808311610e3e57829003601f168201915b505050505081565b600760009054906101000a900473ffffffffffffffffffffffffffffffffffffffff1673ffffffffffffffffffffffffffffffffffffffff166108fc829081150290604051600060405180830381858888f19350505050158015610ecb573d6000803e3d6000fd5b5050565b60025481565b600760009054906101000a900473ffffffffffffffffffffffffffffffffffffffff1673ffffffffffffffffffffffffffffffffffffffff163373ffffffffffffffffffffffffffffffffffffffff1614610f2f57600080fd5b8060019081610f3e9190611eff565b5050565b60068181548110610f5257600080fd5b906000526020600020016000915054906101000a900473ffffffffffffffffffffffffffffffffffffffff1681565b60056020528060005260406000206000915090505481565b60086040518061012001604052808481526020013373ffffffffffffffffffffffffffffffffffffffff168152602001610fd1610d1b565b8152602001610fde610cd5565b8152602001610feb610d1b565b8152602001610ff8610cd5565b8152602001611005610d1b565b8152602001611012610cd5565b815260200160008152509080600181540180825580915050600190039060005260206000209060090201600090919091909150600082015181600001908161105a9190611eff565b5060208201518160010160006101000a81548173ffffffffffffffffffffffffffffffffffffffff021916908373ffffffffffffffffffffffffffffffffffffffff16021790555060408201518160020155606082015181600301556080820151816004015560a0820151816005015560c0820151816006015560e08201518160070155610100820151816008015550506110f481610e63565b5050565b6000600560003373ffffffffffffffffffffffffffffffffffffffff1673ffffffffffffffffffffffffffffffffffffffff1681526020019081526020016000205490503373ffffffffffffffffffffffffffffffffffffffff166108fc829081150290604051600060405180830381858888f19350505050158015611182573d6000803e3d6000fd5b506000600560003373ffffffffffffffffffffffffffffffffffffffff1673ffffffffffffffffffffffffffffffffffffffff1681526020019081526020016000208190555050565b600180546111d890611b48565b80601f016020809104026020016040519081016040528092919081815260200182805461120490611b48565b80156112515780601f1061122657610100808354040283529160200191611251565b820191906000526020600020905b81548152906001019060200180831161123457829003601f168201915b505050505081565b5080546000825590600052602060002090810190611277919061129e565b50565b508054600082556009029060005260206000209081019061129b91906112bb565b50565b5b808211156112b757600081600090555060010161129f565b5090565b5b8082111561133d57600080820160006112d59190611341565b6001820160006101000a81549073ffffffffffffffffffffffffffffffffffffffff02191690556002820160009055600382016000905560048201600090556005820160009055600682016000905560078201600090556008820160009055506009016112bc565b5090565b50805461134d90611b48565b6000825580601f1061135f575061137e565b601f01602090049060005260206000209081019061137d919061129e565b5b50565b6000604051905090565b600080fd5b600080fd5b600073ffffffffffffffffffffffffffffffffffffffff82169050919050565b60006113c082611395565b9050919050565b6113d0816113b5565b81146113db57600080fd5b50565b6000813590506113ed816113c7565b92915050565b6000819050919050565b611406816113f3565b811461141157600080fd5b50565b600081359050611423816113fd565b92915050565b600080604083850312156114405761143f61138b565b5b600061144e858286016113de565b925050602061145f85828601611414565b9150509250929050565b600081519050919050565b600082825260208201905092915050565b6000819050602082019050919050565b600081519050919050565b600082825260208201905092915050565b60005b838110156114cf5780820151818401526020810190506114b4565b60008484015250505050565b6000601f19601f8301169050919050565b60006114f782611495565b61150181856114a0565b93506115118185602086016114b1565b61151a816114db565b840191505092915050565b61152e816113b5565b82525050565b61153d816113f3565b82525050565b600061012083016000830151848203600086015261156182826114ec565b91505060208301516115766020860182611525565b5060408301516115896040860182611534565b50606083015161159c6060860182611534565b5060808301516115af6080860182611534565b5060a08301516115c260a0860182611534565b5060c08301516115d560c0860182611534565b5060e08301516115e860e0860182611534565b506101008301516115fd610100860182611534565b508091505092915050565b60006116148383611543565b905092915050565b6000602082019050919050565b600061163482611469565b61163e8185611474565b93508360208202850161165085611485565b8060005b8581101561168c578484038952815161166d8582611608565b94506116788361161c565b925060208a01995050600181019050611654565b50829750879550505050505092915050565b600060208201905081810360008301526116b88184611629565b905092915050565b600081519050919050565b600082825260208201905092915050565b6000819050602082019050919050565b60006116f88383611525565b60208301905092915050565b6000602082019050919050565b600061171c826116c0565b61172681856116cb565b9350611731836116dc565b8060005b8381101561176257815161174988826116ec565b975061175483611704565b925050600181019050611735565b5085935050505092915050565b600060208201905081810360008301526117898184611711565b905092915050565b600080fd5b600080fd5b7f4e487b7100000000000000000000000000000000000000000000000000000000600052604160045260246000fd5b6117d3826114db565b810181811067ffffffffffffffff821117156117f2576117f161179b565b5b80604052505050565b6000611805611381565b905061181182826117ca565b919050565b600067ffffffffffffffff8211156118315761183061179b565b5b61183a826114db565b9050602081019050919050565b82818337600083830152505050565b600061186961186484611816565b6117fb565b90508281526020810184848401111561188557611884611796565b5b611890848285611847565b509392505050565b600082601f8301126118ad576118ac611791565b5b81356118bd848260208601611856565b91505092915050565b6000602082840312156118dc576118db61138b565b5b600082013567ffffffffffffffff8111156118fa576118f9611390565b5b61190684828501611898565b91505092915050565b6000602082840312156119255761192461138b565b5b600061193384828501611414565b91505092915050565b600082825260208201905092915050565b600061195882611495565b611962818561193c565b93506119728185602086016114b1565b61197b816114db565b840191505092915050565b61198f816113b5565b82525050565b61199e816113f3565b82525050565b60006101208201905081810360008301526119bf818c61194d565b90506119ce602083018b611986565b6119db604083018a611995565b6119e86060830189611995565b6119f56080830188611995565b611a0260a0830187611995565b611a0f60c0830186611995565b611a1c60e0830185611995565b611a2a610100830184611995565b9a9950505050505050505050565b6000602082019050611a4d6000830184611995565b92915050565b6000602082019050611a686000830184611986565b92915050565b60006020820190508181036000830152611a88818461194d565b905092915050565b600060208284031215611aa657611aa561138b565b5b6000611ab4848285016113de565b91505092915050565b60008060408385031215611ad457611ad361138b565b5b600083013567ffffffffffffffff811115611af257611af1611390565b5b611afe85828601611898565b9250506020611b0f85828601611414565b9150509250929050565b7f4e487b7100000000000000000000000000000000000000000000000000000000600052602260045260246000fd5b60006002820490506001821680611b6057607f821691505b602082108103611b7357611b72611b19565b5b50919050565b7f4d696e2033207061727469636970656e747320617265207265712e2e2e000000600082015250565b6000611baf601d8361193c565b9150611bba82611b79565b602082019050919050565b60006020820190508181036000830152611bde81611ba2565b9050919050565b7f4e487b7100000000000000000000000000000000000000000000000000000000600052603260045260246000fd5b7f4e487b7100000000000000000000000000000000000000000000000000000000600052601160045260246000fd5b6000611c4e826113f3565b9150611c59836113f3565b9250828201905080821115611c7157611c70611c14565b5b92915050565b6000611c82826113f3565b91507fffffffffffffffffffffffffffffffffffffffffffffffffffffffffffffffff8203611cb457611cb3611c14565b5b600182019050919050565b6000611cca826113f3565b9150611cd5836113f3565b9250828203905081811115611ced57611cec611c14565b5b92915050565b7f4e487b7100000000000000000000000000000000000000000000000000000000600052601260045260246000fd5b6000611d2d826113f3565b9150611d38836113f3565b925082611d4857611d47611cf3565b5b828204905092915050565b60008190508160005260206000209050919050565b60006020601f8301049050919050565b600082821b905092915050565b600060088302611db57fffffffffffffffffffffffffffffffffffffffffffffffffffffffffffffffff82611d78565b611dbf8683611d78565b95508019841693508086168417925050509392505050565b6000819050919050565b6000611dfc611df7611df2846113f3565b611dd7565b6113f3565b9050919050565b6000819050919050565b611e1683611de1565b611e2a611e2282611e03565b848454611d85565b825550505050565b600090565b611e3f611e32565b611e4a818484611e0d565b505050565b5b81811015611e6e57611e63600082611e37565b600181019050611e50565b5050565b601f821115611eb357611e8481611d53565b611e8d84611d68565b81016020851015611e9c578190505b611eb0611ea885611d68565b830182611e4f565b50505b505050565b600082821c905092915050565b6000611ed660001984600802611eb8565b1980831691505092915050565b6000611eef8383611ec5565b9150826002028217905092915050565b611f0882611495565b67ffffffffffffffff811115611f2157611f2061179b565b5b611f2b8254611b48565b611f36828285611e72565b600060209050601f831160018114611f695760008415611f57578287015190505b611f618582611ee3565b865550611fc9565b601f198416611f7786611d53565b60005b82811015611f9f57848901518255600182019150602085019450602081019050611f7a565b86831015611fbc5784890151611fb8601f891682611ec5565b8355505b6001600288020188555050505b505050505050565b6000611fdc826113f3565b9150611fe7836113f3565b925082611ff757611ff6611cf3565b5b828206905092915050565b6000819050919050565b61201d612018826113f3565b612002565b82525050565b600061202f828661200c565b60208201915061203f828561200c565b60208201915061204f828461200c565b60208201915081905094935050505056fea264697066735822122075cb8e5c73ebb2d38b5b684edb4abf777afe70df1630b89b13150e77f6d4897864736f6c63430008130033",
  "linkReferences": {},
  "deployedLinkReferences": {}
}