{
  "_format": "hh-sol-artifact-1",
  "contractName": "ThreeCardPoker",
  "sourceName": "contracts/ThreeCardPoker.sol",
  "abi": [
    {
      "inputs": [],
      "stateMutability": "nonpayable",
      "type": "constructor"
    },
    {
      "inputs": [
        {
          "internalType": "string",
          "name": "_name",
          "type": "string"
        }
      ],
      "name": "Play_poker",
      "outputs": [],
      "stateMutability": "payable",
      "type": "function"
    },
    {
      "inputs": [],
      "name": "Random_CardNum",
      "outputs": [
        {
          "internalType": "uint256",
          "name": "",
          "type": "uint256"
        }
      ],
      "stateMutability": "nonpayable",
      "type": "function"
    },
    {
      "inputs": [],
      "name": "Random_Suit",
      "outputs": [
        {
          "internalType": "uint256",
          "name": "",
          "type": "uint256"
        }
      ],
      "stateMutability": "nonpayable",
      "type": "function"
    },
    {
      "inputs": [],
      "name": "exit_game",
      "outputs": [],
      "stateMutability": "nonpayable",
      "type": "function"
    },
    {
      "inputs": [],
      "name": "getContractBal",
      "outputs": [
        {
          "internalType": "uint256",
          "name": "",
          "type": "uint256"
        }
      ],
      "stateMutability": "view",
      "type": "function"
    },
    {
      "inputs": [],
      "name": "getplayers_arr",
      "outputs": [
        {
          "components": [
            {
              "internalType": "string",
              "name": "name",
              "type": "string"
            },
            {
              "internalType": "address",
              "name": "player_address",
              "type": "address"
            },
            {
              "internalType": "uint256",
              "name": "card_suit1",
              "type": "uint256"
            },
            {
              "internalType": "uint256",
              "name": "card_num1",
              "type": "uint256"
            },
            {
              "internalType": "uint256",
              "name": "card_suit2",
              "type": "uint256"
            },
            {
              "internalType": "uint256",
              "name": "card_num2",
              "type": "uint256"
            },
            {
              "internalType": "uint256",
              "name": "card_suit3",
              "type": "uint256"
            },
            {
              "internalType": "uint256",
              "name": "card_num3",
              "type": "uint256"
            },
            {
              "internalType": "uint256",
              "name": "score",
              "type": "uint256"
            }
          ],
          "internalType": "struct ThreeCardPoker.Player[]",
          "name": "",
          "type": "tuple[]"
        }
      ],
      "stateMutability": "view",
      "type": "function"
    },
    {
      "inputs": [],
      "name": "getwinners_arr",
      "outputs": [
        {
          "internalType": "address[]",
          "name": "",
          "type": "address[]"
        }
      ],
      "stateMutability": "view",
      "type": "function"
    },
    {
      "inputs": [],
      "name": "manager",
      "outputs": [
        {
          "internalType": "address",
          "name": "",
          "type": "address"
        }
      ],
      "stateMutability": "view",
      "type": "function"
    },
    {
      "inputs": [
        {
          "internalType": "uint256",
          "name": "",
          "type": "uint256"
        }
      ],
      "name": "participents",
      "outputs": [
        {
          "internalType": "string",
          "name": "name",
          "type": "string"
        },
        {
          "internalType": "address",
          "name": "player_address",
          "type": "address"
        },
        {
          "internalType": "uint256",
          "name": "card_suit1",
          "type": "uint256"
        },
        {
          "internalType": "uint256",
          "name": "card_num1",
          "type": "uint256"
        },
        {
          "internalType": "uint256",
          "name": "card_suit2",
          "type": "uint256"
        },
        {
          "internalType": "uint256",
          "name": "card_num2",
          "type": "uint256"
        },
        {
          "internalType": "uint256",
          "name": "card_suit3",
          "type": "uint256"
        },
        {
          "internalType": "uint256",
          "name": "card_num3",
          "type": "uint256"
        },
        {
          "internalType": "uint256",
          "name": "score",
          "type": "uint256"
        }
      ],
      "stateMutability": "view",
      "type": "function"
    },
    {
      "inputs": [],
      "name": "random",
      "outputs": [
        {
          "internalType": "uint256",
          "name": "",
          "type": "uint256"
        }
      ],
      "stateMutability": "nonpayable",
      "type": "function"
    },
    {
      "inputs": [
        {
          "internalType": "address",
          "name": "",
          "type": "address"
        }
      ],
      "name": "registered_Users",
      "outputs": [
        {
          "internalType": "uint256",
          "name": "",
          "type": "uint256"
        }
      ],
      "stateMutability": "view",
      "type": "function"
    },
    {
      "inputs": [],
      "name": "select_Winner",
      "outputs": [],
      "stateMutability": "nonpayable",
      "type": "function"
    },
    {
      "inputs": [],
      "name": "transfer_bet_from_game_to_acc",
      "outputs": [],
      "stateMutability": "payable",
      "type": "function"
    },
    {
      "inputs": [
        {
          "internalType": "uint256",
          "name": "",
          "type": "uint256"
        }
      ],
      "name": "winners",
      "outputs": [
        {
          "internalType": "address",
          "name": "",
          "type": "address"
        }
      ],
      "stateMutability": "view",
      "type": "function"
    }
  ],
  "bytecode": "0x6080604052600060055534801561001557600080fd5b5033600360006101000a81548173ffffffffffffffffffffffffffffffffffffffff021916908373ffffffffffffffffffffffffffffffffffffffff160217905550611b25806100666000396000f3fe6080604052600436106100dd5760003560e01c80635718b76b1161007f5780637d0e415f116100595780637d0e415f14610282578063a2fb11751461029e578063a97f82f0146102db578063cb1baa4314610318576100dd565b80635718b76b146102015780635d9fa6fc1461022c5780635ec01e4d14610257576100dd565b80633bfcd7c5116100bb5780633bfcd7c51461014f5780633ee88d6e1461019457806343991da1146101ab578063481c6a75146101d6576100dd565b80632095eb77146100e25780632ac75ab51461010d57806330c5595b14610124575b600080fd5b3480156100ee57600080fd5b506100f7610322565b6040516101049190611119565b60405180910390f35b34801561011957600080fd5b506101226104b0565b005b34801561013057600080fd5b50610139610890565b60405161014691906111ea565b60405180910390f35b34801561015b57600080fd5b506101766004803603810190610171919061124c565b61091e565b60405161018b999897969594939291906112e1565b60405180910390f35b3480156101a057600080fd5b506101a9610a24565b005b3480156101b757600080fd5b506101c0610a42565b6040516101cd9190611375565b60405180910390f35b3480156101e257600080fd5b506101eb610a62565b6040516101f89190611390565b60405180910390f35b34801561020d57600080fd5b50610216610a88565b6040516102239190611375565b60405180910390f35b34801561023857600080fd5b50610241610aa8565b60405161024e9190611375565b60405180910390f35b34801561026357600080fd5b5061026c610ab0565b6040516102799190611375565b60405180910390f35b61029c600480360381019061029791906114e0565b610b01565b005b3480156102aa57600080fd5b506102c560048036038101906102c0919061124c565b610c56565b6040516102d29190611390565b60405180910390f35b3480156102e757600080fd5b5061030260048036038101906102fd9190611555565b610c95565b60405161030f9190611375565b60405180910390f35b610320610cad565b005b60606004805480602002602001604051908101604052809291908181526020016000905b828210156104a757838290600052602060002090600902016040518061012001604052908160008201805461037a906115b1565b80601f01602080910402602001604051908101604052809291908181526020018280546103a6906115b1565b80156103f35780601f106103c8576101008083540402835291602001916103f3565b820191906000526020600020905b8154815290600101906020018083116103d657829003601f168201915b505050505081526020016001820160009054906101000a900473ffffffffffffffffffffffffffffffffffffffff1673ffffffffffffffffffffffffffffffffffffffff1673ffffffffffffffffffffffffffffffffffffffff16815260200160028201548152602001600382015481526020016004820154815260200160058201548152602001600682015481526020016007820154815260200160088201548152505081526020019060010190610346565b50505050905090565b60048080549050146104f7576040517f08c379a00000000000000000000000000000000000000000000000000000000081526004016104ee90611654565b60405180910390fd5b6000805b60048054905081101561067a576000806004838154811061051f5761051e611674565b5b90600052602060002090600902016007015414610561576004828154811061054a57610549611674565b5b906000526020600020906009020160070154610564565b600d5b60006004848154811061057a57610579611674565b5b906000526020600020906009020160050154146105bc57600483815481106105a5576105a4611674565b5b9060005260206000209060090201600501546105bf565b600d5b6000600485815481106105d5576105d4611674565b5b906000526020600020906009020160030154146106175760048481548110610600576105ff611674565b5b90600052602060002090600902016003015461061a565b600d5b61062491906116d2565b61062e91906116d2565b9050806004838154811061064557610644611674565b5b90600052602060002090600902016008018190555082811115610666578092505b50808061067290611706565b9150506104fb565b5060005b600480549050811015610773576004818154811061069f5761069e611674565b5b9060005260206000209060090201600801548203610760576002600482815481106106cd576106cc611674565b5b906000526020600020906009020160010160009054906101000a900473ffffffffffffffffffffffffffffffffffffffff169080600181540180825580915050600190039060005260206000200160009091909190916101000a81548173ffffffffffffffffffffffffffffffffffffffff021916908373ffffffffffffffffffffffffffffffffffffffff1602179055505b808061076b90611706565b91505061067e565b506000476000541015610795576000544761078e919061174e565b90506107a6565b476000546107a3919061174e565b90505b806000808282546107b791906116d2565b925050819055506000600280549050826107d191906117b1565b905060005b60028054905081101561088a578160016000600284815481106107fc576107fb611674565b5b9060005260206000200160009054906101000a900473ffffffffffffffffffffffffffffffffffffffff1673ffffffffffffffffffffffffffffffffffffffff1673ffffffffffffffffffffffffffffffffffffffff168152602001908152602001600020600082825461087091906116d2565b92505081905550808061088290611706565b9150506107d6565b50505050565b6060600280548060200260200160405190810160405280929190818152602001828054801561091457602002820191906000526020600020905b8160009054906101000a900473ffffffffffffffffffffffffffffffffffffffff1673ffffffffffffffffffffffffffffffffffffffff16815260200190600101908083116108ca575b5050505050905090565b6004818154811061092e57600080fd5b9060005260206000209060090201600091509050806000018054610951906115b1565b80601f016020809104026020016040519081016040528092919081815260200182805461097d906115b1565b80156109ca5780601f1061099f576101008083540402835291602001916109ca565b820191906000526020600020905b8154815290600101906020018083116109ad57829003601f168201915b5050505050908060010160009054906101000a900473ffffffffffffffffffffffffffffffffffffffff16908060020154908060030154908060040154908060050154908060060154908060070154908060080154905089565b60026000610a329190610d80565b60046000610a409190610da1565b565b600080600d610a4f610ab0565b610a5991906117e2565b90508091505090565b600360009054906101000a900473ffffffffffffffffffffffffffffffffffffffff1681565b6000806004610a95610ab0565b610a9f91906117e2565b90508091505090565b600047905090565b6000600160056000828254610ac591906116d2565b925050819055504442600554604051602001610ae393929190611834565b6040516020818303038152906040528051906020012060001c905090565b60046040518061012001604052808381526020013373ffffffffffffffffffffffffffffffffffffffff168152602001610b39610a88565b8152602001610b46610a42565b8152602001610b53610a88565b8152602001610b60610a42565b8152602001610b6d610a88565b8152602001610b7a610a42565b8152602001600081525090806001815401808255809150506001900390600052602060002090600902016000909190919091506000820151816000019081610bc29190611a1d565b5060208201518160010160006101000a81548173ffffffffffffffffffffffffffffffffffffffff021916908373ffffffffffffffffffffffffffffffffffffffff16021790555060408201518160020155606082015181600301556080820151816004015560a0820151816005015560c0820151816006015560e082015181600701556101008201518160080155505050565b60028181548110610c6657600080fd5b906000526020600020016000915054906101000a900473ffffffffffffffffffffffffffffffffffffffff1681565b60016020528060005260406000206000915090505481565b6000600160003373ffffffffffffffffffffffffffffffffffffffff1673ffffffffffffffffffffffffffffffffffffffff1681526020019081526020016000205490503373ffffffffffffffffffffffffffffffffffffffff166108fc829081150290604051600060405180830381858888f19350505050158015610d37573d6000803e3d6000fd5b506000600160003373ffffffffffffffffffffffffffffffffffffffff1673ffffffffffffffffffffffffffffffffffffffff1681526020019081526020016000208190555050565b5080546000825590600052602060002090810190610d9e9190610dc5565b50565b5080546000825560090290600052602060002090810190610dc29190610de2565b50565b5b80821115610dde576000816000905550600101610dc6565b5090565b5b80821115610e645760008082016000610dfc9190610e68565b6001820160006101000a81549073ffffffffffffffffffffffffffffffffffffffff0219169055600282016000905560038201600090556004820160009055600582016000905560068201600090556007820160009055600882016000905550600901610de3565b5090565b508054610e74906115b1565b6000825580601f10610e865750610ea5565b601f016020900490600052602060002090810190610ea49190610dc5565b5b50565b600081519050919050565b600082825260208201905092915050565b6000819050602082019050919050565b600081519050919050565b600082825260208201905092915050565b60005b83811015610f0e578082015181840152602081019050610ef3565b60008484015250505050565b6000601f19601f8301169050919050565b6000610f3682610ed4565b610f408185610edf565b9350610f50818560208601610ef0565b610f5981610f1a565b840191505092915050565b600073ffffffffffffffffffffffffffffffffffffffff82169050919050565b6000610f8f82610f64565b9050919050565b610f9f81610f84565b82525050565b6000819050919050565b610fb881610fa5565b82525050565b6000610120830160008301518482036000860152610fdc8282610f2b565b9150506020830151610ff16020860182610f96565b5060408301516110046040860182610faf565b5060608301516110176060860182610faf565b50608083015161102a6080860182610faf565b5060a083015161103d60a0860182610faf565b5060c083015161105060c0860182610faf565b5060e083015161106360e0860182610faf565b50610100830151611078610100860182610faf565b508091505092915050565b600061108f8383610fbe565b905092915050565b6000602082019050919050565b60006110af82610ea8565b6110b98185610eb3565b9350836020820285016110cb85610ec4565b8060005b8581101561110757848403895281516110e88582611083565b94506110f383611097565b925060208a019950506001810190506110cf565b50829750879550505050505092915050565b6000602082019050818103600083015261113381846110a4565b905092915050565b600081519050919050565b600082825260208201905092915050565b6000819050602082019050919050565b60006111738383610f96565b60208301905092915050565b6000602082019050919050565b60006111978261113b565b6111a18185611146565b93506111ac83611157565b8060005b838110156111dd5781516111c48882611167565b97506111cf8361117f565b9250506001810190506111b0565b5085935050505092915050565b60006020820190508181036000830152611204818461118c565b905092915050565b6000604051905090565b600080fd5b600080fd5b61122981610fa5565b811461123457600080fd5b50565b60008135905061124681611220565b92915050565b60006020828403121561126257611261611216565b5b600061127084828501611237565b91505092915050565b600082825260208201905092915050565b600061129582610ed4565b61129f8185611279565b93506112af818560208601610ef0565b6112b881610f1a565b840191505092915050565b6112cc81610f84565b82525050565b6112db81610fa5565b82525050565b60006101208201905081810360008301526112fc818c61128a565b905061130b602083018b6112c3565b611318604083018a6112d2565b61132560608301896112d2565b61133260808301886112d2565b61133f60a08301876112d2565b61134c60c08301866112d2565b61135960e08301856112d2565b6113676101008301846112d2565b9a9950505050505050505050565b600060208201905061138a60008301846112d2565b92915050565b60006020820190506113a560008301846112c3565b92915050565b600080fd5b600080fd5b7f4e487b7100000000000000000000000000000000000000000000000000000000600052604160045260246000fd5b6113ed82610f1a565b810181811067ffffffffffffffff8211171561140c5761140b6113b5565b5b80604052505050565b600061141f61120c565b905061142b82826113e4565b919050565b600067ffffffffffffffff82111561144b5761144a6113b5565b5b61145482610f1a565b9050602081019050919050565b82818337600083830152505050565b600061148361147e84611430565b611415565b90508281526020810184848401111561149f5761149e6113b0565b5b6114aa848285611461565b509392505050565b600082601f8301126114c7576114c66113ab565b5b81356114d7848260208601611470565b91505092915050565b6000602082840312156114f6576114f5611216565b5b600082013567ffffffffffffffff8111156115145761151361121b565b5b611520848285016114b2565b91505092915050565b61153281610f84565b811461153d57600080fd5b50565b60008135905061154f81611529565b92915050565b60006020828403121561156b5761156a611216565b5b600061157984828501611540565b91505092915050565b7f4e487b7100000000000000000000000000000000000000000000000000000000600052602260045260246000fd5b600060028204905060018216806115c957607f821691505b6020821081036115dc576115db611582565b5b50919050565b7f34207061727469636970656e7473206172652072657120666f7220612067616d60008201527f652e2e2e00000000000000000000000000000000000000000000000000000000602082015250565b600061163e602483611279565b9150611649826115e2565b604082019050919050565b6000602082019050818103600083015261166d81611631565b9050919050565b7f4e487b7100000000000000000000000000000000000000000000000000000000600052603260045260246000fd5b7f4e487b7100000000000000000000000000000000000000000000000000000000600052601160045260246000fd5b60006116dd82610fa5565b91506116e883610fa5565b9250828201905080821115611700576116ff6116a3565b5b92915050565b600061171182610fa5565b91507fffffffffffffffffffffffffffffffffffffffffffffffffffffffffffffffff8203611743576117426116a3565b5b600182019050919050565b600061175982610fa5565b915061176483610fa5565b925082820390508181111561177c5761177b6116a3565b5b92915050565b7f4e487b7100000000000000000000000000000000000000000000000000000000600052601260045260246000fd5b60006117bc82610fa5565b91506117c783610fa5565b9250826117d7576117d6611782565b5b828204905092915050565b60006117ed82610fa5565b91506117f883610fa5565b92508261180857611807611782565b5b828206905092915050565b6000819050919050565b61182e61182982610fa5565b611813565b82525050565b6000611840828661181d565b602082019150611850828561181d565b602082019150611860828461181d565b602082019150819050949350505050565b60008190508160005260206000209050919050565b60006020601f8301049050919050565b600082821b905092915050565b6000600883026118d37fffffffffffffffffffffffffffffffffffffffffffffffffffffffffffffffff82611896565b6118dd8683611896565b95508019841693508086168417925050509392505050565b6000819050919050565b600061191a61191561191084610fa5565b6118f5565b610fa5565b9050919050565b6000819050919050565b611934836118ff565b61194861194082611921565b8484546118a3565b825550505050565b600090565b61195d611950565b61196881848461192b565b505050565b5b8181101561198c57611981600082611955565b60018101905061196e565b5050565b601f8211156119d1576119a281611871565b6119ab84611886565b810160208510156119ba578190505b6119ce6119c685611886565b83018261196d565b50505b505050565b600082821c905092915050565b60006119f4600019846008026119d6565b1980831691505092915050565b6000611a0d83836119e3565b9150826002028217905092915050565b611a2682610ed4565b67ffffffffffffffff811115611a3f57611a3e6113b5565b5b611a4982546115b1565b611a54828285611990565b600060209050601f831160018114611a875760008415611a75578287015190505b611a7f8582611a01565b865550611ae7565b601f198416611a9586611871565b60005b82811015611abd57848901518255600182019150602085019450602081019050611a98565b86831015611ada5784890151611ad6601f8916826119e3565b8355505b6001600288020188555050505b50505050505056fea2646970667358221220b9730a68162e76bfe31998e442ed934a517c25bc8f25f85f0194905b2ef51bca64736f6c63430008130033",
  "linkReferences": {},
  "deployedLinkReferences": {}
}