{
  "_format": "hh-sol-artifact-1",
  "contractName": "ThreeCardPoker",
  "sourceName": "contracts/ThreeCardPoker.sol",
  "abi": [
    {
      "inputs": [],
      "stateMutability": "nonpayable",
      "type": "constructor"
    },
    {
      "inputs": [
        {
          "internalType": "string",
          "name": "_name",
          "type": "string"
        },
        {
          "internalType": "uint256",
          "name": "pfee",
          "type": "uint256"
        }
      ],
      "name": "Play_poker",
      "outputs": [],
      "stateMutability": "payable",
      "type": "function"
    },
    {
      "inputs": [],
      "name": "Random_CardNum",
      "outputs": [
        {
          "internalType": "uint256",
          "name": "",
          "type": "uint256"
        }
      ],
      "stateMutability": "nonpayable",
      "type": "function"
    },
    {
      "inputs": [],
      "name": "Random_Suit",
      "outputs": [
        {
          "internalType": "uint256",
          "name": "",
          "type": "uint256"
        }
      ],
      "stateMutability": "nonpayable",
      "type": "function"
    },
    {
      "inputs": [],
      "name": "bonus",
      "outputs": [
        {
          "internalType": "uint256",
          "name": "",
          "type": "uint256"
        }
      ],
      "stateMutability": "view",
      "type": "function"
    },
    {
      "inputs": [],
      "name": "exit_game",
      "outputs": [],
      "stateMutability": "nonpayable",
      "type": "function"
    },
    {
      "inputs": [
        {
          "internalType": "uint256",
          "name": "",
          "type": "uint256"
        }
      ],
      "name": "exiting_Users",
      "outputs": [
        {
          "internalType": "address",
          "name": "",
          "type": "address"
        }
      ],
      "stateMutability": "view",
      "type": "function"
    },
    {
      "inputs": [],
      "name": "exiting_players_length",
      "outputs": [
        {
          "internalType": "uint256",
          "name": "",
          "type": "uint256"
        }
      ],
      "stateMutability": "view",
      "type": "function"
    },
    {
      "inputs": [],
      "name": "getContractBal",
      "outputs": [
        {
          "internalType": "uint256",
          "name": "",
          "type": "uint256"
        }
      ],
      "stateMutability": "view",
      "type": "function"
    },
    {
      "inputs": [],
      "name": "getOwnerBalance",
      "outputs": [
        {
          "internalType": "uint256",
          "name": "",
          "type": "uint256"
        }
      ],
      "stateMutability": "view",
      "type": "function"
    },
    {
      "inputs": [],
      "name": "getplayers_arr",
      "outputs": [
        {
          "components": [
            {
              "internalType": "string",
              "name": "name",
              "type": "string"
            },
            {
              "internalType": "address",
              "name": "player_address",
              "type": "address"
            },
            {
              "internalType": "uint256",
              "name": "card_suit1",
              "type": "uint256"
            },
            {
              "internalType": "uint256",
              "name": "card_num1",
              "type": "uint256"
            },
            {
              "internalType": "uint256",
              "name": "card_suit2",
              "type": "uint256"
            },
            {
              "internalType": "uint256",
              "name": "card_num2",
              "type": "uint256"
            },
            {
              "internalType": "uint256",
              "name": "card_suit3",
              "type": "uint256"
            },
            {
              "internalType": "uint256",
              "name": "card_num3",
              "type": "uint256"
            },
            {
              "internalType": "uint256",
              "name": "score",
              "type": "uint256"
            }
          ],
          "internalType": "struct ThreeCardPoker.Player[]",
          "name": "",
          "type": "tuple[]"
        }
      ],
      "stateMutability": "view",
      "type": "function"
    },
    {
      "inputs": [],
      "name": "getwinners_arr",
      "outputs": [
        {
          "internalType": "address[]",
          "name": "",
          "type": "address[]"
        }
      ],
      "stateMutability": "view",
      "type": "function"
    },
    {
      "inputs": [],
      "name": "manager",
      "outputs": [
        {
          "internalType": "address",
          "name": "",
          "type": "address"
        }
      ],
      "stateMutability": "view",
      "type": "function"
    },
    {
      "inputs": [],
      "name": "num_games_played",
      "outputs": [
        {
          "internalType": "uint256",
          "name": "",
          "type": "uint256"
        }
      ],
      "stateMutability": "view",
      "type": "function"
    },
    {
      "inputs": [
        {
          "internalType": "address",
          "name": "",
          "type": "address"
        }
      ],
      "name": "num_games_played_users",
      "outputs": [
        {
          "internalType": "uint256",
          "name": "",
          "type": "uint256"
        }
      ],
      "stateMutability": "view",
      "type": "function"
    },
    {
      "inputs": [],
      "name": "owners_bal",
      "outputs": [
        {
          "internalType": "uint256",
          "name": "",
          "type": "uint256"
        }
      ],
      "stateMutability": "view",
      "type": "function"
    },
    {
      "inputs": [
        {
          "internalType": "uint256",
          "name": "",
          "type": "uint256"
        }
      ],
      "name": "participents",
      "outputs": [
        {
          "internalType": "string",
          "name": "name",
          "type": "string"
        },
        {
          "internalType": "address",
          "name": "player_address",
          "type": "address"
        },
        {
          "internalType": "uint256",
          "name": "card_suit1",
          "type": "uint256"
        },
        {
          "internalType": "uint256",
          "name": "card_num1",
          "type": "uint256"
        },
        {
          "internalType": "uint256",
          "name": "card_suit2",
          "type": "uint256"
        },
        {
          "internalType": "uint256",
          "name": "card_num2",
          "type": "uint256"
        },
        {
          "internalType": "uint256",
          "name": "card_suit3",
          "type": "uint256"
        },
        {
          "internalType": "uint256",
          "name": "card_num3",
          "type": "uint256"
        },
        {
          "internalType": "uint256",
          "name": "score",
          "type": "uint256"
        }
      ],
      "stateMutability": "view",
      "type": "function"
    },
    {
      "inputs": [
        {
          "internalType": "uint256",
          "name": "val",
          "type": "uint256"
        }
      ],
      "name": "payplatformfee",
      "outputs": [],
      "stateMutability": "payable",
      "type": "function"
    },
    {
      "inputs": [],
      "name": "platformfee",
      "outputs": [
        {
          "internalType": "string",
          "name": "",
          "type": "string"
        }
      ],
      "stateMutability": "view",
      "type": "function"
    },
    {
      "inputs": [],
      "name": "random",
      "outputs": [
        {
          "internalType": "uint256",
          "name": "",
          "type": "uint256"
        }
      ],
      "stateMutability": "nonpayable",
      "type": "function"
    },
    {
      "inputs": [
        {
          "internalType": "address",
          "name": "",
          "type": "address"
        }
      ],
      "name": "registered_Users",
      "outputs": [
        {
          "internalType": "uint256",
          "name": "",
          "type": "uint256"
        }
      ],
      "stateMutability": "view",
      "type": "function"
    },
    {
      "inputs": [],
      "name": "select_Winner",
      "outputs": [],
      "stateMutability": "payable",
      "type": "function"
    },
    {
      "inputs": [
        {
          "internalType": "uint256",
          "name": "_bonus",
          "type": "uint256"
        }
      ],
      "name": "setBonus",
      "outputs": [],
      "stateMutability": "nonpayable",
      "type": "function"
    },
    {
      "inputs": [
        {
          "internalType": "string",
          "name": "pfee",
          "type": "string"
        }
      ],
      "name": "setPlatformfee",
      "outputs": [],
      "stateMutability": "nonpayable",
      "type": "function"
    },
    {
      "inputs": [],
      "name": "transfer_bet_from_game_to_acc",
      "outputs": [],
      "stateMutability": "payable",
      "type": "function"
    },
    {
      "inputs": [
        {
          "internalType": "address",
          "name": "acc",
          "type": "address"
        },
        {
          "internalType": "uint256",
          "name": "val",
          "type": "uint256"
        }
      ],
      "name": "update_wallet",
      "outputs": [],
      "stateMutability": "nonpayable",
      "type": "function"
    },
    {
      "inputs": [
        {
          "internalType": "uint256",
          "name": "",
          "type": "uint256"
        }
      ],
      "name": "winners",
      "outputs": [
        {
          "internalType": "address",
          "name": "",
          "type": "address"
        }
      ],
      "stateMutability": "view",
      "type": "function"
    }
  ],
  "bytecode": "0x608060405260008060006101000a81548160ff0219169083151502179055506000600b553480156200003057600080fd5b5033600960006101000a81548173ffffffffffffffffffffffffffffffffffffffff021916908373ffffffffffffffffffffffffffffffffffffffff1602179055506040518060400160405280600181526020017f300000000000000000000000000000000000000000000000000000000000000081525060019081620000b8919062000349565b506000600281905550600060038190555062000430565b600081519050919050565b7f4e487b7100000000000000000000000000000000000000000000000000000000600052604160045260246000fd5b7f4e487b7100000000000000000000000000000000000000000000000000000000600052602260045260246000fd5b600060028204905060018216806200015157607f821691505b60208210810362000167576200016662000109565b5b50919050565b60008190508160005260206000209050919050565b60006020601f8301049050919050565b600082821b905092915050565b600060088302620001d17fffffffffffffffffffffffffffffffffffffffffffffffffffffffffffffffff8262000192565b620001dd868362000192565b95508019841693508086168417925050509392505050565b6000819050919050565b6000819050919050565b60006200022a620002246200021e84620001f5565b620001ff565b620001f5565b9050919050565b6000819050919050565b620002468362000209565b6200025e620002558262000231565b8484546200019f565b825550505050565b600090565b6200027562000266565b620002828184846200023b565b505050565b5b81811015620002aa576200029e6000826200026b565b60018101905062000288565b5050565b601f821115620002f957620002c3816200016d565b620002ce8462000182565b81016020851015620002de578190505b620002f6620002ed8562000182565b83018262000287565b50505b505050565b600082821c905092915050565b60006200031e60001984600802620002fe565b1980831691505092915050565b60006200033983836200030b565b9150826002028217905092915050565b6200035482620000cf565b67ffffffffffffffff81111562000370576200036f620000da565b5b6200037c825462000138565b62000389828285620002ae565b600060209050601f831160018114620003c15760008415620003ac578287015190505b620003b885826200032b565b86555062000428565b601f198416620003d1866200016d565b60005b82811015620003fb57848901518255600182019150602085019450602081019050620003d4565b868310156200041b578489015162000417601f8916826200030b565b8355505b6001600288020188555050505b505050505050565b61234e80620004406000396000f3fe6080604052600436106101815760003560e01c80635ec01e4d116100d1578063a1ea26b91161008a578063c17a6e3d11610064578063c17a6e3d1461053e578063cb1baa431461055a578063cf8ec40514610564578063f4488f46146105a157610181565b8063a1ea26b91461049b578063a2fb1175146104c4578063a97f82f01461050157610181565b80635ec01e4d146103a85780636f5d4dbb146103d357806375b4d78c146103fe5780637b5009a8146104295780638ee7c1a614610445578063a17be9a51461047057610181565b80633bfcd7c51161013e578063481c6a7511610118578063481c6a75146102fc5780635718b76b14610327578063590791f2146103525780635d9fa6fc1461037d57610181565b80633bfcd7c5146102755780633ee88d6e146102ba57806343991da1146102d157610181565b80630768eca9146101865780630b98f975146101af5780632095eb77146101d857806325ee6162146102035780632ac75ab51461024057806330c5595b1461024a575b600080fd5b34801561019257600080fd5b506101ad60048036038101906101a891906116e1565b6105cc565b005b3480156101bb57600080fd5b506101d660048036038101906101d19190611721565b610614565b005b3480156101e457600080fd5b506101ed610678565b6040516101fa9190611983565b60405180910390f35b34801561020f57600080fd5b5061022a600480360381019061022591906119a5565b610806565b60405161023791906119e1565b60405180910390f35b61024861081e565b005b34801561025657600080fd5b5061025f610d37565b60405161026c9190611aab565b60405180910390f35b34801561028157600080fd5b5061029c60048036038101906102979190611721565b610dc5565b6040516102b199989796959493929190611b26565b60405180910390f35b3480156102c657600080fd5b506102cf610ecb565b005b3480156102dd57600080fd5b506102e6610f82565b6040516102f391906119e1565b60405180910390f35b34801561030857600080fd5b50610311610fa2565b60405161031e9190611bba565b60405180910390f35b34801561033357600080fd5b5061033c610fc8565b60405161034991906119e1565b60405180910390f35b34801561035e57600080fd5b50610367610fe8565b60405161037491906119e1565b60405180910390f35b34801561038957600080fd5b50610392611029565b60405161039f91906119e1565b60405180910390f35b3480156103b457600080fd5b506103bd611031565b6040516103ca91906119e1565b60405180910390f35b3480156103df57600080fd5b506103e8611082565b6040516103f591906119e1565b60405180910390f35b34801561040a57600080fd5b506104136110c9565b60405161042091906119e1565b60405180910390f35b610443600480360381019061043e9190611721565b6110cf565b005b34801561045157600080fd5b5061045a61113b565b60405161046791906119e1565b60405180910390f35b34801561047c57600080fd5b50610485611148565b60405161049291906119e1565b60405180910390f35b3480156104a757600080fd5b506104c260048036038101906104bd9190611d0a565b61114e565b005b3480156104d057600080fd5b506104eb60048036038101906104e69190611721565b6111bb565b6040516104f89190611bba565b60405180910390f35b34801561050d57600080fd5b50610528600480360381019061052391906119a5565b6111fa565b60405161053591906119e1565b60405180910390f35b61055860048036038101906105539190611d53565b611212565b005b610562611371565b005b34801561057057600080fd5b5061058b60048036038101906105869190611721565b611444565b6040516105989190611bba565b60405180910390f35b3480156105ad57600080fd5b506105b6611483565b6040516105c39190611daf565b60405180910390f35b80600560008473ffffffffffffffffffffffffffffffffffffffff1673ffffffffffffffffffffffffffffffffffffffff168152602001908152602001600020819055505050565b600960009054906101000a900473ffffffffffffffffffffffffffffffffffffffff1673ffffffffffffffffffffffffffffffffffffffff163373ffffffffffffffffffffffffffffffffffffffff161461066e57600080fd5b8060038190555050565b6060600a805480602002602001604051908101604052809291908181526020016000905b828210156107fd5783829060005260206000209060090201604051806101200160405290816000820180546106d090611e00565b80601f01602080910402602001604051908101604052809291908181526020018280546106fc90611e00565b80156107495780601f1061071e57610100808354040283529160200191610749565b820191906000526020600020905b81548152906001019060200180831161072c57829003601f168201915b505050505081526020016001820160009054906101000a900473ffffffffffffffffffffffffffffffffffffffff1673ffffffffffffffffffffffffffffffffffffffff1673ffffffffffffffffffffffffffffffffffffffff1681526020016002820154815260200160038201548152602001600482015481526020016005820154815260200160068201548152602001600782015481526020016008820154815250508152602001906001019061069c565b50505050905090565b60066020528060005260406000206000915090505481565b6004600a8054905014610866576040517f08c379a000000000000000000000000000000000000000000000000000000000815260040161085d90611e7d565b60405180910390fd5b6000805b600a805490508110156109e957600080600a838154811061088e5761088d611e9d565b5b906000526020600020906009020160070154146108d057600a82815481106108b9576108b8611e9d565b5b9060005260206000209060090201600701546108d3565b600d5b6000600a84815481106108e9576108e8611e9d565b5b9060005260206000209060090201600501541461092b57600a838154811061091457610913611e9d565b5b90600052602060002090600902016005015461092e565b600d5b6000600a858154811061094457610943611e9d565b5b9060005260206000209060090201600301541461098657600a848154811061096f5761096e611e9d565b5b906000526020600020906009020160030154610989565b600d5b6109939190611efb565b61099d9190611efb565b905080600a83815481106109b4576109b3611e9d565b5b906000526020600020906009020160080181905550828111156109d5578092505b5080806109e190611f2f565b91505061086a565b5060005b600a80549050811015610ae257600a8181548110610a0e57610a0d611e9d565b5b9060005260206000209060090201600801548203610acf576008600a8281548110610a3c57610a3b611e9d565b5b906000526020600020906009020160010160009054906101000a900473ffffffffffffffffffffffffffffffffffffffff169080600181540180825580915050600190039060005260206000200160009091909190916101000a81548173ffffffffffffffffffffffffffffffffffffffff021916908373ffffffffffffffffffffffffffffffffffffffff1602179055505b8080610ada90611f2f565b9150506109ed565b506001600660003373ffffffffffffffffffffffffffffffffffffffff1673ffffffffffffffffffffffffffffffffffffffff1681526020019081526020016000206000828254610b339190611efb565b925050819055506000600a600660003373ffffffffffffffffffffffffffffffffffffffff1673ffffffffffffffffffffffffffffffffffffffff16815260200190815260200160002054610b889190611fa6565b03610be657600354600560003373ffffffffffffffffffffffffffffffffffffffff1673ffffffffffffffffffffffffffffffffffffffff1681526020019081526020016000206000828254610bde9190611efb565b925050819055505b6000151560008054906101000a900460ff16151503610d34576000476004541015610c205760045447610c199190611fd7565b9050610c31565b47600454610c2e9190611fd7565b90505b8060046000828254610c439190611efb565b92505081905550600060088054905082610c5d919061200b565b905060005b600880549050811015610d1657816005600060088481548110610c8857610c87611e9d565b5b9060005260206000200160009054906101000a900473ffffffffffffffffffffffffffffffffffffffff1673ffffffffffffffffffffffffffffffffffffffff1673ffffffffffffffffffffffffffffffffffffffff1681526020019081526020016000206000828254610cfc9190611efb565b925050819055508080610d0e90611f2f565b915050610c62565b5060016000806101000a81548160ff02191690831515021790555050505b50565b60606008805480602002602001604051908101604052809291908181526020018280548015610dbb57602002820191906000526020600020905b8160009054906101000a900473ffffffffffffffffffffffffffffffffffffffff1673ffffffffffffffffffffffffffffffffffffffff1681526020019060010190808311610d71575b5050505050905090565b600a8181548110610dd557600080fd5b9060005260206000209060090201600091509050806000018054610df890611e00565b80601f0160208091040260200160405190810160405280929190818152602001828054610e2490611e00565b8015610e715780601f10610e4657610100808354040283529160200191610e71565b820191906000526020600020905b815481529060010190602001808311610e5457829003601f168201915b5050505050908060010160009054906101000a900473ffffffffffffffffffffffffffffffffffffffff16908060020154908060030154908060040154908060050154908060060154908060070154908060080154905089565b60086000610ed99190611511565b6007339080600181540180825580915050600190039060005260206000200160009091909190916101000a81548173ffffffffffffffffffffffffffffffffffffffff021916908373ffffffffffffffffffffffffffffffffffffffff160217905550600460078054905003610f8057600a6000610f579190611532565b60008060006101000a81548160ff02191690831515021790555060076000610f7f9190611511565b5b565b600080600d610f8f611031565b610f999190611fa6565b90508091505090565b600960009054906101000a900473ffffffffffffffffffffffffffffffffffffffff1681565b6000806004610fd5611031565b610fdf9190611fa6565b90508091505090565b6000600960009054906101000a900473ffffffffffffffffffffffffffffffffffffffff1673ffffffffffffffffffffffffffffffffffffffff1631905090565b600047905090565b60006001600b60008282546110469190611efb565b925050819055504442600b546040516020016110649392919061205d565b6040516020818303038152906040528051906020012060001c905090565b6000600660003373ffffffffffffffffffffffffffffffffffffffff1673ffffffffffffffffffffffffffffffffffffffff16815260200190815260200160002054905090565b60035481565b600960009054906101000a900473ffffffffffffffffffffffffffffffffffffffff1673ffffffffffffffffffffffffffffffffffffffff166108fc829081150290604051600060405180830381858888f19350505050158015611137573d6000803e3d6000fd5b5050565b6000600780549050905090565b60025481565b600960009054906101000a900473ffffffffffffffffffffffffffffffffffffffff1673ffffffffffffffffffffffffffffffffffffffff163373ffffffffffffffffffffffffffffffffffffffff16146111a857600080fd5b80600190816111b79190612246565b5050565b600881815481106111cb57600080fd5b906000526020600020016000915054906101000a900473ffffffffffffffffffffffffffffffffffffffff1681565b60056020528060005260406000206000915090505481565b600a6040518061012001604052808481526020013373ffffffffffffffffffffffffffffffffffffffff16815260200161124a610fc8565b8152602001611257610f82565b8152602001611264610fc8565b8152602001611271610f82565b815260200161127e610fc8565b815260200161128b610f82565b81526020016000815250908060018154018082558091505060019003906000526020600020906009020160009091909190915060008201518160000190816112d39190612246565b5060208201518160010160006101000a81548173ffffffffffffffffffffffffffffffffffffffff021916908373ffffffffffffffffffffffffffffffffffffffff16021790555060408201518160020155606082015181600301556080820151816004015560a0820151816005015560c0820151816006015560e082015181600701556101008201518160080155505061136d816110cf565b5050565b6000600560003373ffffffffffffffffffffffffffffffffffffffff1673ffffffffffffffffffffffffffffffffffffffff1681526020019081526020016000205490503373ffffffffffffffffffffffffffffffffffffffff166108fc829081150290604051600060405180830381858888f193505050501580156113fb573d6000803e3d6000fd5b506000600560003373ffffffffffffffffffffffffffffffffffffffff1673ffffffffffffffffffffffffffffffffffffffff1681526020019081526020016000208190555050565b6007818154811061145457600080fd5b906000526020600020016000915054906101000a900473ffffffffffffffffffffffffffffffffffffffff1681565b6001805461149090611e00565b80601f01602080910402602001604051908101604052809291908181526020018280546114bc90611e00565b80156115095780601f106114de57610100808354040283529160200191611509565b820191906000526020600020905b8154815290600101906020018083116114ec57829003601f168201915b505050505081565b508054600082559060005260206000209081019061152f9190611556565b50565b50805460008255600902906000526020600020908101906115539190611573565b50565b5b8082111561156f576000816000905550600101611557565b5090565b5b808211156115f5576000808201600061158d91906115f9565b6001820160006101000a81549073ffffffffffffffffffffffffffffffffffffffff0219169055600282016000905560038201600090556004820160009055600582016000905560068201600090556007820160009055600882016000905550600901611574565b5090565b50805461160590611e00565b6000825580601f106116175750611636565b601f0160209004906000526020600020908101906116359190611556565b5b50565b6000604051905090565b600080fd5b600080fd5b600073ffffffffffffffffffffffffffffffffffffffff82169050919050565b60006116788261164d565b9050919050565b6116888161166d565b811461169357600080fd5b50565b6000813590506116a58161167f565b92915050565b6000819050919050565b6116be816116ab565b81146116c957600080fd5b50565b6000813590506116db816116b5565b92915050565b600080604083850312156116f8576116f7611643565b5b600061170685828601611696565b9250506020611717858286016116cc565b9150509250929050565b60006020828403121561173757611736611643565b5b6000611745848285016116cc565b91505092915050565b600081519050919050565b600082825260208201905092915050565b6000819050602082019050919050565b600081519050919050565b600082825260208201905092915050565b60005b838110156117b4578082015181840152602081019050611799565b60008484015250505050565b6000601f19601f8301169050919050565b60006117dc8261177a565b6117e68185611785565b93506117f6818560208601611796565b6117ff816117c0565b840191505092915050565b6118138161166d565b82525050565b611822816116ab565b82525050565b600061012083016000830151848203600086015261184682826117d1565b915050602083015161185b602086018261180a565b50604083015161186e6040860182611819565b5060608301516118816060860182611819565b5060808301516118946080860182611819565b5060a08301516118a760a0860182611819565b5060c08301516118ba60c0860182611819565b5060e08301516118cd60e0860182611819565b506101008301516118e2610100860182611819565b508091505092915050565b60006118f98383611828565b905092915050565b6000602082019050919050565b60006119198261174e565b6119238185611759565b9350836020820285016119358561176a565b8060005b85811015611971578484038952815161195285826118ed565b945061195d83611901565b925060208a01995050600181019050611939565b50829750879550505050505092915050565b6000602082019050818103600083015261199d818461190e565b905092915050565b6000602082840312156119bb576119ba611643565b5b60006119c984828501611696565b91505092915050565b6119db816116ab565b82525050565b60006020820190506119f660008301846119d2565b92915050565b600081519050919050565b600082825260208201905092915050565b6000819050602082019050919050565b6000611a34838361180a565b60208301905092915050565b6000602082019050919050565b6000611a58826119fc565b611a628185611a07565b9350611a6d83611a18565b8060005b83811015611a9e578151611a858882611a28565b9750611a9083611a40565b925050600181019050611a71565b5085935050505092915050565b60006020820190508181036000830152611ac58184611a4d565b905092915050565b600082825260208201905092915050565b6000611ae98261177a565b611af38185611acd565b9350611b03818560208601611796565b611b0c816117c0565b840191505092915050565b611b208161166d565b82525050565b6000610120820190508181036000830152611b41818c611ade565b9050611b50602083018b611b17565b611b5d604083018a6119d2565b611b6a60608301896119d2565b611b7760808301886119d2565b611b8460a08301876119d2565b611b9160c08301866119d2565b611b9e60e08301856119d2565b611bac6101008301846119d2565b9a9950505050505050505050565b6000602082019050611bcf6000830184611b17565b92915050565b600080fd5b600080fd5b7f4e487b7100000000000000000000000000000000000000000000000000000000600052604160045260246000fd5b611c17826117c0565b810181811067ffffffffffffffff82111715611c3657611c35611bdf565b5b80604052505050565b6000611c49611639565b9050611c558282611c0e565b919050565b600067ffffffffffffffff821115611c7557611c74611bdf565b5b611c7e826117c0565b9050602081019050919050565b82818337600083830152505050565b6000611cad611ca884611c5a565b611c3f565b905082815260208101848484011115611cc957611cc8611bda565b5b611cd4848285611c8b565b509392505050565b600082601f830112611cf157611cf0611bd5565b5b8135611d01848260208601611c9a565b91505092915050565b600060208284031215611d2057611d1f611643565b5b600082013567ffffffffffffffff811115611d3e57611d3d611648565b5b611d4a84828501611cdc565b91505092915050565b60008060408385031215611d6a57611d69611643565b5b600083013567ffffffffffffffff811115611d8857611d87611648565b5b611d9485828601611cdc565b9250506020611da5858286016116cc565b9150509250929050565b60006020820190508181036000830152611dc98184611ade565b905092915050565b7f4e487b7100000000000000000000000000000000000000000000000000000000600052602260045260246000fd5b60006002820490506001821680611e1857607f821691505b602082108103611e2b57611e2a611dd1565b5b50919050565b7f34207061727469636970616e7473206f6e6c7920616c6c6f7765642e2e2e0000600082015250565b6000611e67601e83611acd565b9150611e7282611e31565b602082019050919050565b60006020820190508181036000830152611e9681611e5a565b9050919050565b7f4e487b7100000000000000000000000000000000000000000000000000000000600052603260045260246000fd5b7f4e487b7100000000000000000000000000000000000000000000000000000000600052601160045260246000fd5b6000611f06826116ab565b9150611f11836116ab565b9250828201905080821115611f2957611f28611ecc565b5b92915050565b6000611f3a826116ab565b91507fffffffffffffffffffffffffffffffffffffffffffffffffffffffffffffffff8203611f6c57611f6b611ecc565b5b600182019050919050565b7f4e487b7100000000000000000000000000000000000000000000000000000000600052601260045260246000fd5b6000611fb1826116ab565b9150611fbc836116ab565b925082611fcc57611fcb611f77565b5b828206905092915050565b6000611fe2826116ab565b9150611fed836116ab565b925082820390508181111561200557612004611ecc565b5b92915050565b6000612016826116ab565b9150612021836116ab565b92508261203157612030611f77565b5b828204905092915050565b6000819050919050565b612057612052826116ab565b61203c565b82525050565b60006120698286612046565b6020820191506120798285612046565b6020820191506120898284612046565b602082019150819050949350505050565b60008190508160005260206000209050919050565b60006020601f8301049050919050565b600082821b905092915050565b6000600883026120fc7fffffffffffffffffffffffffffffffffffffffffffffffffffffffffffffffff826120bf565b61210686836120bf565b95508019841693508086168417925050509392505050565b6000819050919050565b600061214361213e612139846116ab565b61211e565b6116ab565b9050919050565b6000819050919050565b61215d83612128565b6121716121698261214a565b8484546120cc565b825550505050565b600090565b612186612179565b612191818484612154565b505050565b5b818110156121b5576121aa60008261217e565b600181019050612197565b5050565b601f8211156121fa576121cb8161209a565b6121d4846120af565b810160208510156121e3578190505b6121f76121ef856120af565b830182612196565b50505b505050565b600082821c905092915050565b600061221d600019846008026121ff565b1980831691505092915050565b6000612236838361220c565b9150826002028217905092915050565b61224f8261177a565b67ffffffffffffffff81111561226857612267611bdf565b5b6122728254611e00565b61227d8282856121b9565b600060209050601f8311600181146122b0576000841561229e578287015190505b6122a8858261222a565b865550612310565b601f1984166122be8661209a565b60005b828110156122e6578489015182556001820191506020850194506020810190506122c1565b8683101561230357848901516122ff601f89168261220c565b8355505b6001600288020188555050505b50505050505056fea2646970667358221220fe085418b418abc37aa7b4cfc3cfe9de31dd2734620df65da7899c79fa3e092664736f6c63430008130033",
  "linkReferences": {},
  "deployedLinkReferences": {}
}