{
  "_format": "hh-sol-artifact-1",
  "contractName": "ThreeCardPoker",
  "sourceName": "contracts/ThreeCardPoker.sol",
  "abi": [
    {
      "inputs": [],
      "stateMutability": "nonpayable",
      "type": "constructor"
    },
    {
      "inputs": [
        {
          "internalType": "address",
          "name": "",
          "type": "address"
        }
      ],
      "name": "Bonus_Users",
      "outputs": [
        {
          "internalType": "uint256",
          "name": "",
          "type": "uint256"
        }
      ],
      "stateMutability": "view",
      "type": "function"
    },
    {
      "inputs": [
        {
          "internalType": "string",
          "name": "_name",
          "type": "string"
        }
      ],
      "name": "Play_poker",
      "outputs": [],
      "stateMutability": "payable",
      "type": "function"
    },
    {
      "inputs": [],
      "name": "Random_CardNum",
      "outputs": [
        {
          "internalType": "uint256",
          "name": "",
          "type": "uint256"
        }
      ],
      "stateMutability": "nonpayable",
      "type": "function"
    },
    {
      "inputs": [],
      "name": "Random_Suit",
      "outputs": [
        {
          "internalType": "uint256",
          "name": "",
          "type": "uint256"
        }
      ],
      "stateMutability": "nonpayable",
      "type": "function"
    },
    {
      "inputs": [],
      "name": "bonus",
      "outputs": [
        {
          "internalType": "uint256",
          "name": "",
          "type": "uint256"
        }
      ],
      "stateMutability": "view",
      "type": "function"
    },
    {
      "inputs": [],
      "name": "exit_game",
      "outputs": [],
      "stateMutability": "nonpayable",
      "type": "function"
    },
    {
      "inputs": [
        {
          "internalType": "uint256",
          "name": "",
          "type": "uint256"
        }
      ],
      "name": "exiting_Users",
      "outputs": [
        {
          "internalType": "address",
          "name": "",
          "type": "address"
        }
      ],
      "stateMutability": "view",
      "type": "function"
    },
    {
      "inputs": [],
      "name": "exiting_players_length",
      "outputs": [
        {
          "internalType": "uint256",
          "name": "",
          "type": "uint256"
        }
      ],
      "stateMutability": "view",
      "type": "function"
    },
    {
      "inputs": [],
      "name": "getContractBal",
      "outputs": [
        {
          "internalType": "uint256",
          "name": "",
          "type": "uint256"
        }
      ],
      "stateMutability": "view",
      "type": "function"
    },
    {
      "inputs": [],
      "name": "getOwnerBalance",
      "outputs": [
        {
          "internalType": "uint256",
          "name": "",
          "type": "uint256"
        }
      ],
      "stateMutability": "view",
      "type": "function"
    },
    {
      "inputs": [],
      "name": "getplayers_arr",
      "outputs": [
        {
          "components": [
            {
              "internalType": "string",
              "name": "name",
              "type": "string"
            },
            {
              "internalType": "address",
              "name": "player_address",
              "type": "address"
            },
            {
              "internalType": "uint256",
              "name": "card_suit1",
              "type": "uint256"
            },
            {
              "internalType": "uint256",
              "name": "card_num1",
              "type": "uint256"
            },
            {
              "internalType": "uint256",
              "name": "card_suit2",
              "type": "uint256"
            },
            {
              "internalType": "uint256",
              "name": "card_num2",
              "type": "uint256"
            },
            {
              "internalType": "uint256",
              "name": "card_suit3",
              "type": "uint256"
            },
            {
              "internalType": "uint256",
              "name": "card_num3",
              "type": "uint256"
            },
            {
              "internalType": "uint256",
              "name": "score",
              "type": "uint256"
            }
          ],
          "internalType": "struct ThreeCardPoker.Player[]",
          "name": "",
          "type": "tuple[]"
        }
      ],
      "stateMutability": "view",
      "type": "function"
    },
    {
      "inputs": [],
      "name": "getwinners_arr",
      "outputs": [
        {
          "internalType": "address[]",
          "name": "",
          "type": "address[]"
        }
      ],
      "stateMutability": "view",
      "type": "function"
    },
    {
      "inputs": [],
      "name": "manager",
      "outputs": [
        {
          "internalType": "address",
          "name": "",
          "type": "address"
        }
      ],
      "stateMutability": "view",
      "type": "function"
    },
    {
      "inputs": [],
      "name": "num_games_played",
      "outputs": [
        {
          "internalType": "uint256",
          "name": "",
          "type": "uint256"
        }
      ],
      "stateMutability": "view",
      "type": "function"
    },
    {
      "inputs": [
        {
          "internalType": "address",
          "name": "",
          "type": "address"
        }
      ],
      "name": "num_games_played_users",
      "outputs": [
        {
          "internalType": "uint256",
          "name": "",
          "type": "uint256"
        }
      ],
      "stateMutability": "view",
      "type": "function"
    },
    {
      "inputs": [],
      "name": "owners_bal",
      "outputs": [
        {
          "internalType": "uint256",
          "name": "",
          "type": "uint256"
        }
      ],
      "stateMutability": "view",
      "type": "function"
    },
    {
      "inputs": [
        {
          "internalType": "uint256",
          "name": "",
          "type": "uint256"
        }
      ],
      "name": "participents",
      "outputs": [
        {
          "internalType": "string",
          "name": "name",
          "type": "string"
        },
        {
          "internalType": "address",
          "name": "player_address",
          "type": "address"
        },
        {
          "internalType": "uint256",
          "name": "card_suit1",
          "type": "uint256"
        },
        {
          "internalType": "uint256",
          "name": "card_num1",
          "type": "uint256"
        },
        {
          "internalType": "uint256",
          "name": "card_suit2",
          "type": "uint256"
        },
        {
          "internalType": "uint256",
          "name": "card_num2",
          "type": "uint256"
        },
        {
          "internalType": "uint256",
          "name": "card_suit3",
          "type": "uint256"
        },
        {
          "internalType": "uint256",
          "name": "card_num3",
          "type": "uint256"
        },
        {
          "internalType": "uint256",
          "name": "score",
          "type": "uint256"
        }
      ],
      "stateMutability": "view",
      "type": "function"
    },
    {
      "inputs": [
        {
          "internalType": "uint256",
          "name": "val",
          "type": "uint256"
        }
      ],
      "name": "payplatformfee",
      "outputs": [],
      "stateMutability": "payable",
      "type": "function"
    },
    {
      "inputs": [],
      "name": "platformfee",
      "outputs": [
        {
          "internalType": "string",
          "name": "",
          "type": "string"
        }
      ],
      "stateMutability": "view",
      "type": "function"
    },
    {
      "inputs": [],
      "name": "random",
      "outputs": [
        {
          "internalType": "uint256",
          "name": "",
          "type": "uint256"
        }
      ],
      "stateMutability": "nonpayable",
      "type": "function"
    },
    {
      "inputs": [
        {
          "internalType": "address",
          "name": "",
          "type": "address"
        }
      ],
      "name": "registered_Users",
      "outputs": [
        {
          "internalType": "uint256",
          "name": "",
          "type": "uint256"
        }
      ],
      "stateMutability": "view",
      "type": "function"
    },
    {
      "inputs": [],
      "name": "select_Winner",
      "outputs": [],
      "stateMutability": "payable",
      "type": "function"
    },
    {
      "inputs": [
        {
          "internalType": "uint256",
          "name": "_bonus",
          "type": "uint256"
        }
      ],
      "name": "setBonus",
      "outputs": [],
      "stateMutability": "nonpayable",
      "type": "function"
    },
    {
      "inputs": [
        {
          "internalType": "string",
          "name": "pfee",
          "type": "string"
        }
      ],
      "name": "setPlatformfee",
      "outputs": [],
      "stateMutability": "nonpayable",
      "type": "function"
    },
    {
      "inputs": [],
      "name": "transfer_bet_from_game_to_acc",
      "outputs": [],
      "stateMutability": "payable",
      "type": "function"
    },
    {
      "inputs": [],
      "name": "transfer_bonus_from_contract_to_acc",
      "outputs": [],
      "stateMutability": "payable",
      "type": "function"
    },
    {
      "inputs": [
        {
          "internalType": "address",
          "name": "acc",
          "type": "address"
        },
        {
          "internalType": "uint256",
          "name": "val",
          "type": "uint256"
        }
      ],
      "name": "update_wallet",
      "outputs": [],
      "stateMutability": "nonpayable",
      "type": "function"
    },
    {
      "inputs": [
        {
          "internalType": "uint256",
          "name": "",
          "type": "uint256"
        }
      ],
      "name": "winners",
      "outputs": [
        {
          "internalType": "address",
          "name": "",
          "type": "address"
        }
      ],
      "stateMutability": "view",
      "type": "function"
    }
  ],
  "bytecode": "0x608060405260008060006101000a81548160ff0219169083151502179055506000600c553480156200003057600080fd5b5033600a60006101000a81548173ffffffffffffffffffffffffffffffffffffffff021916908373ffffffffffffffffffffffffffffffffffffffff1602179055506040518060400160405280600181526020017f300000000000000000000000000000000000000000000000000000000000000081525060019081620000b8919062000349565b506000600281905550600060038190555062000430565b600081519050919050565b7f4e487b7100000000000000000000000000000000000000000000000000000000600052604160045260246000fd5b7f4e487b7100000000000000000000000000000000000000000000000000000000600052602260045260246000fd5b600060028204905060018216806200015157607f821691505b60208210810362000167576200016662000109565b5b50919050565b60008190508160005260206000209050919050565b60006020601f8301049050919050565b600082821b905092915050565b600060088302620001d17fffffffffffffffffffffffffffffffffffffffffffffffffffffffffffffffff8262000192565b620001dd868362000192565b95508019841693508086168417925050509392505050565b6000819050919050565b6000819050919050565b60006200022a620002246200021e84620001f5565b620001ff565b620001f5565b9050919050565b6000819050919050565b620002468362000209565b6200025e620002558262000231565b8484546200019f565b825550505050565b600090565b6200027562000266565b620002828184846200023b565b505050565b5b81811015620002aa576200029e6000826200026b565b60018101905062000288565b5050565b601f821115620002f957620002c3816200016d565b620002ce8462000182565b81016020851015620002de578190505b620002f6620002ed8562000182565b83018262000287565b50505b505050565b600082821c905092915050565b60006200031e60001984600802620002fe565b1980831691505092915050565b60006200033983836200030b565b9150826002028217905092915050565b6200035482620000cf565b67ffffffffffffffff81111562000370576200036f620000da565b5b6200037c825462000138565b62000389828285620002ae565b600060209050601f831160018114620003c15760008415620003ac578287015190505b620003b885826200032b565b86555062000428565b601f198416620003d1866200016d565b60005b82811015620003fb57848901518255600182019150602085019450602081019050620003d4565b868310156200041b578489015162000417601f8916826200030b565b8355505b6001600288020188555050505b505050505050565b61245080620004406000396000f3fe6080604052600436106101b75760003560e01c80636f5d4dbb116100ec578063a1ea26b91161008a578063cb1baa4311610064578063cb1baa431461059a578063cf8ec405146105a4578063f4488f46146105e1578063f92fbcc01461060c576101b7565b8063a1ea26b9146104f7578063a2fb117514610520578063a97f82f01461055d576101b7565b80637d0e415f116100c65780637d0e415f1461047b5780638ee7c1a6146104975780639b077072146104c2578063a17be9a5146104cc576101b7565b80636f5d4dbb1461040957806375b4d78c146104345780637b5009a81461045f576101b7565b80633ee88d6e116101595780635718b76b116101335780635718b76b1461035d578063590791f2146103885780635d9fa6fc146103b35780635ec01e4d146103de576101b7565b80633ee88d6e146102f057806343991da114610307578063481c6a7514610332576101b7565b806325ee61621161019557806325ee6162146102395780632ac75ab51461027657806330c5595b146102805780633bfcd7c5146102ab576101b7565b80630768eca9146101bc5780630b98f975146101e55780632095eb771461020e575b600080fd5b3480156101c857600080fd5b506101e360048036038101906101de919061183f565b610649565b005b3480156101f157600080fd5b5061020c6004803603810190610207919061187f565b610691565b005b34801561021a57600080fd5b506102236106f5565b6040516102309190611ae1565b60405180910390f35b34801561024557600080fd5b50610260600480360381019061025b9190611b03565b610883565b60405161026d9190611b3f565b60405180910390f35b61027e61089b565b005b34801561028c57600080fd5b50610295610db4565b6040516102a29190611c09565b60405180910390f35b3480156102b757600080fd5b506102d260048036038101906102cd919061187f565b610e42565b6040516102e799989796959493929190611c84565b60405180910390f35b3480156102fc57600080fd5b50610305610f48565b005b34801561031357600080fd5b5061031c610fff565b6040516103299190611b3f565b60405180910390f35b34801561033e57600080fd5b5061034761101f565b6040516103549190611d18565b60405180910390f35b34801561036957600080fd5b50610372611045565b60405161037f9190611b3f565b60405180910390f35b34801561039457600080fd5b5061039d611065565b6040516103aa9190611b3f565b60405180910390f35b3480156103bf57600080fd5b506103c86110a6565b6040516103d59190611b3f565b60405180910390f35b3480156103ea57600080fd5b506103f36110ae565b6040516104009190611b3f565b60405180910390f35b34801561041557600080fd5b5061041e6110ff565b60405161042b9190611b3f565b60405180910390f35b34801561044057600080fd5b50610449611146565b6040516104569190611b3f565b60405180910390f35b6104796004803603810190610474919061187f565b61114c565b005b61049560048036038101906104909190611e68565b6111b8565b005b3480156104a357600080fd5b506104ac61130d565b6040516104b99190611b3f565b60405180910390f35b6104ca61131a565b005b3480156104d857600080fd5b506104e16113ed565b6040516104ee9190611b3f565b60405180910390f35b34801561050357600080fd5b5061051e60048036038101906105199190611e68565b6113f3565b005b34801561052c57600080fd5b506105476004803603810190610542919061187f565b611460565b6040516105549190611d18565b60405180910390f35b34801561056957600080fd5b50610584600480360381019061057f9190611b03565b61149f565b6040516105919190611b3f565b60405180910390f35b6105a26114b7565b005b3480156105b057600080fd5b506105cb60048036038101906105c6919061187f565b61158a565b6040516105d89190611d18565b60405180910390f35b3480156105ed57600080fd5b506105f66115c9565b6040516106039190611eb1565b60405180910390f35b34801561061857600080fd5b50610633600480360381019061062e9190611b03565b611657565b6040516106409190611b3f565b60405180910390f35b80600560008473ffffffffffffffffffffffffffffffffffffffff1673ffffffffffffffffffffffffffffffffffffffff168152602001908152602001600020819055505050565b600a60009054906101000a900473ffffffffffffffffffffffffffffffffffffffff1673ffffffffffffffffffffffffffffffffffffffff163373ffffffffffffffffffffffffffffffffffffffff16146106eb57600080fd5b8060038190555050565b6060600b805480602002602001604051908101604052809291908181526020016000905b8282101561087a57838290600052602060002090600902016040518061012001604052908160008201805461074d90611f02565b80601f016020809104026020016040519081016040528092919081815260200182805461077990611f02565b80156107c65780601f1061079b576101008083540402835291602001916107c6565b820191906000526020600020905b8154815290600101906020018083116107a957829003601f168201915b505050505081526020016001820160009054906101000a900473ffffffffffffffffffffffffffffffffffffffff1673ffffffffffffffffffffffffffffffffffffffff1673ffffffffffffffffffffffffffffffffffffffff16815260200160028201548152602001600382015481526020016004820154815260200160058201548152602001600682015481526020016007820154815260200160088201548152505081526020019060010190610719565b50505050905090565b60066020528060005260406000206000915090505481565b6004600b80549050146108e3576040517f08c379a00000000000000000000000000000000000000000000000000000000081526004016108da90611f7f565b60405180910390fd5b6000805b600b80549050811015610a6657600080600b838154811061090b5761090a611f9f565b5b9060005260206000209060090201600701541461094d57600b828154811061093657610935611f9f565b5b906000526020600020906009020160070154610950565b600d5b6000600b848154811061096657610965611f9f565b5b906000526020600020906009020160050154146109a857600b838154811061099157610990611f9f565b5b9060005260206000209060090201600501546109ab565b600d5b6000600b85815481106109c1576109c0611f9f565b5b90600052602060002090600902016003015414610a0357600b84815481106109ec576109eb611f9f565b5b906000526020600020906009020160030154610a06565b600d5b610a109190611ffd565b610a1a9190611ffd565b905080600b8381548110610a3157610a30611f9f565b5b90600052602060002090600902016008018190555082811115610a52578092505b508080610a5e90612031565b9150506108e7565b5060005b600b80549050811015610b5f57600b8181548110610a8b57610a8a611f9f565b5b9060005260206000209060090201600801548203610b4c576009600b8281548110610ab957610ab8611f9f565b5b906000526020600020906009020160010160009054906101000a900473ffffffffffffffffffffffffffffffffffffffff169080600181540180825580915050600190039060005260206000200160009091909190916101000a81548173ffffffffffffffffffffffffffffffffffffffff021916908373ffffffffffffffffffffffffffffffffffffffff1602179055505b8080610b5790612031565b915050610a6a565b506001600660003373ffffffffffffffffffffffffffffffffffffffff1673ffffffffffffffffffffffffffffffffffffffff1681526020019081526020016000206000828254610bb09190611ffd565b925050819055506000600a600660003373ffffffffffffffffffffffffffffffffffffffff1673ffffffffffffffffffffffffffffffffffffffff16815260200190815260200160002054610c0591906120a8565b03610c6357600354600760003373ffffffffffffffffffffffffffffffffffffffff1673ffffffffffffffffffffffffffffffffffffffff1681526020019081526020016000206000828254610c5b9190611ffd565b925050819055505b6000151560008054906101000a900460ff16151503610db1576000476004541015610c9d5760045447610c9691906120d9565b9050610cae565b47600454610cab91906120d9565b90505b8060046000828254610cc09190611ffd565b92505081905550600060098054905082610cda919061210d565b905060005b600980549050811015610d9357816005600060098481548110610d0557610d04611f9f565b5b9060005260206000200160009054906101000a900473ffffffffffffffffffffffffffffffffffffffff1673ffffffffffffffffffffffffffffffffffffffff1673ffffffffffffffffffffffffffffffffffffffff1681526020019081526020016000206000828254610d799190611ffd565b925050819055508080610d8b90612031565b915050610cdf565b5060016000806101000a81548160ff02191690831515021790555050505b50565b60606009805480602002602001604051908101604052809291908181526020018280548015610e3857602002820191906000526020600020905b8160009054906101000a900473ffffffffffffffffffffffffffffffffffffffff1673ffffffffffffffffffffffffffffffffffffffff1681526020019060010190808311610dee575b5050505050905090565b600b8181548110610e5257600080fd5b9060005260206000209060090201600091509050806000018054610e7590611f02565b80601f0160208091040260200160405190810160405280929190818152602001828054610ea190611f02565b8015610eee5780601f10610ec357610100808354040283529160200191610eee565b820191906000526020600020905b815481529060010190602001808311610ed157829003601f168201915b5050505050908060010160009054906101000a900473ffffffffffffffffffffffffffffffffffffffff16908060020154908060030154908060040154908060050154908060060154908060070154908060080154905089565b60096000610f56919061166f565b6008339080600181540180825580915050600190039060005260206000200160009091909190916101000a81548173ffffffffffffffffffffffffffffffffffffffff021916908373ffffffffffffffffffffffffffffffffffffffff160217905550600460088054905003610ffd57600b6000610fd49190611690565b60008060006101000a81548160ff02191690831515021790555060086000610ffc919061166f565b5b565b600080600d61100c6110ae565b61101691906120a8565b90508091505090565b600a60009054906101000a900473ffffffffffffffffffffffffffffffffffffffff1681565b60008060046110526110ae565b61105c91906120a8565b90508091505090565b6000600a60009054906101000a900473ffffffffffffffffffffffffffffffffffffffff1673ffffffffffffffffffffffffffffffffffffffff1631905090565b600047905090565b60006001600c60008282546110c39190611ffd565b925050819055504442600c546040516020016110e19392919061215f565b6040516020818303038152906040528051906020012060001c905090565b6000600660003373ffffffffffffffffffffffffffffffffffffffff1673ffffffffffffffffffffffffffffffffffffffff16815260200190815260200160002054905090565b60035481565b600a60009054906101000a900473ffffffffffffffffffffffffffffffffffffffff1673ffffffffffffffffffffffffffffffffffffffff166108fc829081150290604051600060405180830381858888f193505050501580156111b4573d6000803e3d6000fd5b5050565b600b6040518061012001604052808381526020013373ffffffffffffffffffffffffffffffffffffffff1681526020016111f0611045565b81526020016111fd610fff565b815260200161120a611045565b8152602001611217610fff565b8152602001611224611045565b8152602001611231610fff565b81526020016000815250908060018154018082558091505060019003906000526020600020906009020160009091909190915060008201518160000190816112799190612348565b5060208201518160010160006101000a81548173ffffffffffffffffffffffffffffffffffffffff021916908373ffffffffffffffffffffffffffffffffffffffff16021790555060408201518160020155606082015181600301556080820151816004015560a0820151816005015560c0820151816006015560e082015181600701556101008201518160080155505050565b6000600880549050905090565b6000600760003373ffffffffffffffffffffffffffffffffffffffff1673ffffffffffffffffffffffffffffffffffffffff1681526020019081526020016000205490503373ffffffffffffffffffffffffffffffffffffffff166108fc829081150290604051600060405180830381858888f193505050501580156113a4573d6000803e3d6000fd5b506000600760003373ffffffffffffffffffffffffffffffffffffffff1673ffffffffffffffffffffffffffffffffffffffff1681526020019081526020016000208190555050565b60025481565b600a60009054906101000a900473ffffffffffffffffffffffffffffffffffffffff1673ffffffffffffffffffffffffffffffffffffffff163373ffffffffffffffffffffffffffffffffffffffff161461144d57600080fd5b806001908161145c9190612348565b5050565b6009818154811061147057600080fd5b906000526020600020016000915054906101000a900473ffffffffffffffffffffffffffffffffffffffff1681565b60056020528060005260406000206000915090505481565b6000600560003373ffffffffffffffffffffffffffffffffffffffff1673ffffffffffffffffffffffffffffffffffffffff1681526020019081526020016000205490503373ffffffffffffffffffffffffffffffffffffffff166108fc829081150290604051600060405180830381858888f19350505050158015611541573d6000803e3d6000fd5b506000600560003373ffffffffffffffffffffffffffffffffffffffff1673ffffffffffffffffffffffffffffffffffffffff1681526020019081526020016000208190555050565b6008818154811061159a57600080fd5b906000526020600020016000915054906101000a900473ffffffffffffffffffffffffffffffffffffffff1681565b600180546115d690611f02565b80601f016020809104026020016040519081016040528092919081815260200182805461160290611f02565b801561164f5780601f106116245761010080835404028352916020019161164f565b820191906000526020600020905b81548152906001019060200180831161163257829003601f168201915b505050505081565b60076020528060005260406000206000915090505481565b508054600082559060005260206000209081019061168d91906116b4565b50565b50805460008255600902906000526020600020908101906116b191906116d1565b50565b5b808211156116cd5760008160009055506001016116b5565b5090565b5b8082111561175357600080820160006116eb9190611757565b6001820160006101000a81549073ffffffffffffffffffffffffffffffffffffffff02191690556002820160009055600382016000905560048201600090556005820160009055600682016000905560078201600090556008820160009055506009016116d2565b5090565b50805461176390611f02565b6000825580601f106117755750611794565b601f01602090049060005260206000209081019061179391906116b4565b5b50565b6000604051905090565b600080fd5b600080fd5b600073ffffffffffffffffffffffffffffffffffffffff82169050919050565b60006117d6826117ab565b9050919050565b6117e6816117cb565b81146117f157600080fd5b50565b600081359050611803816117dd565b92915050565b6000819050919050565b61181c81611809565b811461182757600080fd5b50565b60008135905061183981611813565b92915050565b60008060408385031215611856576118556117a1565b5b6000611864858286016117f4565b92505060206118758582860161182a565b9150509250929050565b600060208284031215611895576118946117a1565b5b60006118a38482850161182a565b91505092915050565b600081519050919050565b600082825260208201905092915050565b6000819050602082019050919050565b600081519050919050565b600082825260208201905092915050565b60005b838110156119125780820151818401526020810190506118f7565b60008484015250505050565b6000601f19601f8301169050919050565b600061193a826118d8565b61194481856118e3565b93506119548185602086016118f4565b61195d8161191e565b840191505092915050565b611971816117cb565b82525050565b61198081611809565b82525050565b60006101208301600083015184820360008601526119a4828261192f565b91505060208301516119b96020860182611968565b5060408301516119cc6040860182611977565b5060608301516119df6060860182611977565b5060808301516119f26080860182611977565b5060a0830151611a0560a0860182611977565b5060c0830151611a1860c0860182611977565b5060e0830151611a2b60e0860182611977565b50610100830151611a40610100860182611977565b508091505092915050565b6000611a578383611986565b905092915050565b6000602082019050919050565b6000611a77826118ac565b611a8181856118b7565b935083602082028501611a93856118c8565b8060005b85811015611acf5784840389528151611ab08582611a4b565b9450611abb83611a5f565b925060208a01995050600181019050611a97565b50829750879550505050505092915050565b60006020820190508181036000830152611afb8184611a6c565b905092915050565b600060208284031215611b1957611b186117a1565b5b6000611b27848285016117f4565b91505092915050565b611b3981611809565b82525050565b6000602082019050611b546000830184611b30565b92915050565b600081519050919050565b600082825260208201905092915050565b6000819050602082019050919050565b6000611b928383611968565b60208301905092915050565b6000602082019050919050565b6000611bb682611b5a565b611bc08185611b65565b9350611bcb83611b76565b8060005b83811015611bfc578151611be38882611b86565b9750611bee83611b9e565b925050600181019050611bcf565b5085935050505092915050565b60006020820190508181036000830152611c238184611bab565b905092915050565b600082825260208201905092915050565b6000611c47826118d8565b611c518185611c2b565b9350611c618185602086016118f4565b611c6a8161191e565b840191505092915050565b611c7e816117cb565b82525050565b6000610120820190508181036000830152611c9f818c611c3c565b9050611cae602083018b611c75565b611cbb604083018a611b30565b611cc86060830189611b30565b611cd56080830188611b30565b611ce260a0830187611b30565b611cef60c0830186611b30565b611cfc60e0830185611b30565b611d0a610100830184611b30565b9a9950505050505050505050565b6000602082019050611d2d6000830184611c75565b92915050565b600080fd5b600080fd5b7f4e487b7100000000000000000000000000000000000000000000000000000000600052604160045260246000fd5b611d758261191e565b810181811067ffffffffffffffff82111715611d9457611d93611d3d565b5b80604052505050565b6000611da7611797565b9050611db38282611d6c565b919050565b600067ffffffffffffffff821115611dd357611dd2611d3d565b5b611ddc8261191e565b9050602081019050919050565b82818337600083830152505050565b6000611e0b611e0684611db8565b611d9d565b905082815260208101848484011115611e2757611e26611d38565b5b611e32848285611de9565b509392505050565b600082601f830112611e4f57611e4e611d33565b5b8135611e5f848260208601611df8565b91505092915050565b600060208284031215611e7e57611e7d6117a1565b5b600082013567ffffffffffffffff811115611e9c57611e9b6117a6565b5b611ea884828501611e3a565b91505092915050565b60006020820190508181036000830152611ecb8184611c3c565b905092915050565b7f4e487b7100000000000000000000000000000000000000000000000000000000600052602260045260246000fd5b60006002820490506001821680611f1a57607f821691505b602082108103611f2d57611f2c611ed3565b5b50919050565b7f34207061727469636970616e7473206f6e6c7920616c6c6f7765642e2e2e0000600082015250565b6000611f69601e83611c2b565b9150611f7482611f33565b602082019050919050565b60006020820190508181036000830152611f9881611f5c565b9050919050565b7f4e487b7100000000000000000000000000000000000000000000000000000000600052603260045260246000fd5b7f4e487b7100000000000000000000000000000000000000000000000000000000600052601160045260246000fd5b600061200882611809565b915061201383611809565b925082820190508082111561202b5761202a611fce565b5b92915050565b600061203c82611809565b91507fffffffffffffffffffffffffffffffffffffffffffffffffffffffffffffffff820361206e5761206d611fce565b5b600182019050919050565b7f4e487b7100000000000000000000000000000000000000000000000000000000600052601260045260246000fd5b60006120b382611809565b91506120be83611809565b9250826120ce576120cd612079565b5b828206905092915050565b60006120e482611809565b91506120ef83611809565b925082820390508181111561210757612106611fce565b5b92915050565b600061211882611809565b915061212383611809565b92508261213357612132612079565b5b828204905092915050565b6000819050919050565b61215961215482611809565b61213e565b82525050565b600061216b8286612148565b60208201915061217b8285612148565b60208201915061218b8284612148565b602082019150819050949350505050565b60008190508160005260206000209050919050565b60006020601f8301049050919050565b600082821b905092915050565b6000600883026121fe7fffffffffffffffffffffffffffffffffffffffffffffffffffffffffffffffff826121c1565b61220886836121c1565b95508019841693508086168417925050509392505050565b6000819050919050565b600061224561224061223b84611809565b612220565b611809565b9050919050565b6000819050919050565b61225f8361222a565b61227361226b8261224c565b8484546121ce565b825550505050565b600090565b61228861227b565b612293818484612256565b505050565b5b818110156122b7576122ac600082612280565b600181019050612299565b5050565b601f8211156122fc576122cd8161219c565b6122d6846121b1565b810160208510156122e5578190505b6122f96122f1856121b1565b830182612298565b50505b505050565b600082821c905092915050565b600061231f60001984600802612301565b1980831691505092915050565b6000612338838361230e565b9150826002028217905092915050565b612351826118d8565b67ffffffffffffffff81111561236a57612369611d3d565b5b6123748254611f02565b61237f8282856122bb565b600060209050601f8311600181146123b257600084156123a0578287015190505b6123aa858261232c565b865550612412565b601f1984166123c08661219c565b60005b828110156123e8578489015182556001820191506020850194506020810190506123c3565b868310156124055784890151612401601f89168261230e565b8355505b6001600288020188555050505b50505050505056fea2646970667358221220898e3ca4138eb13c19579a86d164ec9dc052ff6109611701873e98887b4399a464736f6c63430008130033",
  "linkReferences": {},
  "deployedLinkReferences": {}
}