{
  "_format": "hh-sol-artifact-1",
  "contractName": "ThreeCardPoker",
  "sourceName": "contracts/ThreeCardPoker.sol",
  "abi": [
    {
      "inputs": [],
      "stateMutability": "nonpayable",
      "type": "constructor"
    },
    {
      "inputs": [
        {
          "internalType": "string",
          "name": "_name",
          "type": "string"
        },
        {
          "internalType": "uint256",
          "name": "pfee",
          "type": "uint256"
        }
      ],
      "name": "Play_poker",
      "outputs": [],
      "stateMutability": "payable",
      "type": "function"
    },
    {
      "inputs": [],
      "name": "Random_CardNum",
      "outputs": [
        {
          "internalType": "uint256",
          "name": "",
          "type": "uint256"
        }
      ],
      "stateMutability": "nonpayable",
      "type": "function"
    },
    {
      "inputs": [],
      "name": "Random_Suit",
      "outputs": [
        {
          "internalType": "uint256",
          "name": "",
          "type": "uint256"
        }
      ],
      "stateMutability": "nonpayable",
      "type": "function"
    },
    {
      "inputs": [],
      "name": "bonus",
      "outputs": [
        {
          "internalType": "string",
          "name": "",
          "type": "string"
        }
      ],
      "stateMutability": "view",
      "type": "function"
    },
    {
      "inputs": [],
      "name": "exit_game",
      "outputs": [],
      "stateMutability": "nonpayable",
      "type": "function"
    },
    {
      "inputs": [],
      "name": "getContractBal",
      "outputs": [
        {
          "internalType": "uint256",
          "name": "",
          "type": "uint256"
        }
      ],
      "stateMutability": "view",
      "type": "function"
    },
    {
      "inputs": [],
      "name": "getOwnerBalance",
      "outputs": [
        {
          "internalType": "uint256",
          "name": "",
          "type": "uint256"
        }
      ],
      "stateMutability": "view",
      "type": "function"
    },
    {
      "inputs": [],
      "name": "getplayers_arr",
      "outputs": [
        {
          "components": [
            {
              "internalType": "string",
              "name": "name",
              "type": "string"
            },
            {
              "internalType": "address",
              "name": "player_address",
              "type": "address"
            },
            {
              "internalType": "uint256",
              "name": "card_suit1",
              "type": "uint256"
            },
            {
              "internalType": "uint256",
              "name": "card_num1",
              "type": "uint256"
            },
            {
              "internalType": "uint256",
              "name": "card_suit2",
              "type": "uint256"
            },
            {
              "internalType": "uint256",
              "name": "card_num2",
              "type": "uint256"
            },
            {
              "internalType": "uint256",
              "name": "card_suit3",
              "type": "uint256"
            },
            {
              "internalType": "uint256",
              "name": "card_num3",
              "type": "uint256"
            },
            {
              "internalType": "uint256",
              "name": "score",
              "type": "uint256"
            }
          ],
          "internalType": "struct ThreeCardPoker.Player[]",
          "name": "",
          "type": "tuple[]"
        }
      ],
      "stateMutability": "view",
      "type": "function"
    },
    {
      "inputs": [],
      "name": "getwinners_arr",
      "outputs": [
        {
          "internalType": "address[]",
          "name": "",
          "type": "address[]"
        }
      ],
      "stateMutability": "view",
      "type": "function"
    },
    {
      "inputs": [],
      "name": "manager",
      "outputs": [
        {
          "internalType": "address",
          "name": "",
          "type": "address"
        }
      ],
      "stateMutability": "view",
      "type": "function"
    },
    {
      "inputs": [],
      "name": "owners_bal",
      "outputs": [
        {
          "internalType": "uint256",
          "name": "",
          "type": "uint256"
        }
      ],
      "stateMutability": "view",
      "type": "function"
    },
    {
      "inputs": [
        {
          "internalType": "uint256",
          "name": "",
          "type": "uint256"
        }
      ],
      "name": "participents",
      "outputs": [
        {
          "internalType": "string",
          "name": "name",
          "type": "string"
        },
        {
          "internalType": "address",
          "name": "player_address",
          "type": "address"
        },
        {
          "internalType": "uint256",
          "name": "card_suit1",
          "type": "uint256"
        },
        {
          "internalType": "uint256",
          "name": "card_num1",
          "type": "uint256"
        },
        {
          "internalType": "uint256",
          "name": "card_suit2",
          "type": "uint256"
        },
        {
          "internalType": "uint256",
          "name": "card_num2",
          "type": "uint256"
        },
        {
          "internalType": "uint256",
          "name": "card_suit3",
          "type": "uint256"
        },
        {
          "internalType": "uint256",
          "name": "card_num3",
          "type": "uint256"
        },
        {
          "internalType": "uint256",
          "name": "score",
          "type": "uint256"
        }
      ],
      "stateMutability": "view",
      "type": "function"
    },
    {
      "inputs": [
        {
          "internalType": "uint256",
          "name": "val",
          "type": "uint256"
        }
      ],
      "name": "payplatformfee",
      "outputs": [],
      "stateMutability": "payable",
      "type": "function"
    },
    {
      "inputs": [],
      "name": "platformfee",
      "outputs": [
        {
          "internalType": "string",
          "name": "",
          "type": "string"
        }
      ],
      "stateMutability": "view",
      "type": "function"
    },
    {
      "inputs": [],
      "name": "random",
      "outputs": [
        {
          "internalType": "uint256",
          "name": "",
          "type": "uint256"
        }
      ],
      "stateMutability": "nonpayable",
      "type": "function"
    },
    {
      "inputs": [
        {
          "internalType": "address",
          "name": "",
          "type": "address"
        }
      ],
      "name": "registered_Users",
      "outputs": [
        {
          "internalType": "uint256",
          "name": "",
          "type": "uint256"
        }
      ],
      "stateMutability": "view",
      "type": "function"
    },
    {
      "inputs": [],
      "name": "select_Winner",
      "outputs": [],
      "stateMutability": "payable",
      "type": "function"
    },
    {
      "inputs": [
        {
          "internalType": "string",
          "name": "_bonus",
          "type": "string"
        }
      ],
      "name": "setBonus",
      "outputs": [],
      "stateMutability": "nonpayable",
      "type": "function"
    },
    {
      "inputs": [
        {
          "internalType": "string",
          "name": "pfee",
          "type": "string"
        }
      ],
      "name": "setPlatformfee",
      "outputs": [],
      "stateMutability": "nonpayable",
      "type": "function"
    },
    {
      "inputs": [],
      "name": "transfer_bet_from_game_to_acc",
      "outputs": [],
      "stateMutability": "payable",
      "type": "function"
    },
    {
      "inputs": [
        {
          "internalType": "address",
          "name": "acc",
          "type": "address"
        },
        {
          "internalType": "uint256",
          "name": "val",
          "type": "uint256"
        }
      ],
      "name": "update_wallet",
      "outputs": [],
      "stateMutability": "nonpayable",
      "type": "function"
    },
    {
      "inputs": [
        {
          "internalType": "uint256",
          "name": "",
          "type": "uint256"
        }
      ],
      "name": "winners",
      "outputs": [
        {
          "internalType": "address",
          "name": "",
          "type": "address"
        }
      ],
      "stateMutability": "view",
      "type": "function"
    }
  ],
  "bytecode": "0x608060405260006008553480156200001657600080fd5b5033600660006101000a81548173ffffffffffffffffffffffffffffffffffffffff021916908373ffffffffffffffffffffffffffffffffffffffff1602179055506040518060400160405280600181526020017f3000000000000000000000000000000000000000000000000000000000000000815250600090816200009e91906200036e565b5060006001819055506040518060400160405280600181526020017f300000000000000000000000000000000000000000000000000000000000000081525060029081620000ed91906200036e565b5062000455565b600081519050919050565b7f4e487b7100000000000000000000000000000000000000000000000000000000600052604160045260246000fd5b7f4e487b7100000000000000000000000000000000000000000000000000000000600052602260045260246000fd5b600060028204905060018216806200017657607f821691505b6020821081036200018c576200018b6200012e565b5b50919050565b60008190508160005260206000209050919050565b60006020601f8301049050919050565b600082821b905092915050565b600060088302620001f67fffffffffffffffffffffffffffffffffffffffffffffffffffffffffffffffff82620001b7565b620002028683620001b7565b95508019841693508086168417925050509392505050565b6000819050919050565b6000819050919050565b60006200024f6200024962000243846200021a565b62000224565b6200021a565b9050919050565b6000819050919050565b6200026b836200022e565b620002836200027a8262000256565b848454620001c4565b825550505050565b600090565b6200029a6200028b565b620002a781848462000260565b505050565b5b81811015620002cf57620002c360008262000290565b600181019050620002ad565b5050565b601f8211156200031e57620002e88162000192565b620002f384620001a7565b8101602085101562000303578190505b6200031b6200031285620001a7565b830182620002ac565b50505b505050565b600082821c905092915050565b6000620003436000198460080262000323565b1980831691505092915050565b60006200035e838362000330565b9150826002028217905092915050565b6200037982620000f4565b67ffffffffffffffff811115620003955762000394620000ff565b5b620003a182546200015d565b620003ae828285620002d3565b600060209050601f831160018114620003e65760008415620003d1578287015190505b620003dd858262000350565b8655506200044d565b601f198416620003f68662000192565b60005b828110156200042057848901518255600182019150602085019450602081019050620003f9565b868310156200044057848901516200043c601f89168262000330565b8355505b6001600288020188555050505b505050505050565b61204880620004656000396000f3fe6080604052600436106101355760003560e01c80635d9fa6fc116100ab578063a1ea26b91161006f578063a1ea26b9146103bc578063a2fb1175146103e5578063a97f82f014610422578063c17a6e3d1461045f578063cb1baa431461047b578063f4488f461461048557610135565b80635d9fa6fc146102f45780635ec01e4d1461031f57806375b4d78c1461034a5780637b5009a814610375578063a17be9a51461039157610135565b80633bfcd7c5116100fd5780633bfcd7c5146101ec5780633ee88d6e1461023157806343991da114610248578063481c6a75146102735780635718b76b1461029e578063590791f2146102c957610135565b80630768eca91461013a5780632095eb77146101635780632ac75ab51461018e57806330c5595b146101985780633b99647b146101c3575b600080fd5b34801561014657600080fd5b50610161600480360381019061015c91906113db565b6104b0565b005b34801561016f57600080fd5b506101786104f8565b6040516101859190611650565b60405180910390f35b610196610686565b005b3480156101a457600080fd5b506101ad610a68565b6040516101ba9190611721565b60405180910390f35b3480156101cf57600080fd5b506101ea60048036038101906101e59190611878565b610af6565b005b3480156101f857600080fd5b50610213600480360381019061020e91906118c1565b610b63565b60405161022899989796959493929190611956565b60405180910390f35b34801561023d57600080fd5b50610246610c69565b005b34801561025457600080fd5b5061025d610c87565b60405161026a91906119ea565b60405180910390f35b34801561027f57600080fd5b50610288610ca7565b6040516102959190611a05565b60405180910390f35b3480156102aa57600080fd5b506102b3610ccd565b6040516102c091906119ea565b60405180910390f35b3480156102d557600080fd5b506102de610ced565b6040516102eb91906119ea565b60405180910390f35b34801561030057600080fd5b50610309610d2e565b60405161031691906119ea565b60405180910390f35b34801561032b57600080fd5b50610334610d36565b60405161034191906119ea565b60405180910390f35b34801561035657600080fd5b5061035f610d87565b60405161036c9190611a20565b60405180910390f35b61038f600480360381019061038a91906118c1565b610e15565b005b34801561039d57600080fd5b506103a6610e81565b6040516103b391906119ea565b60405180910390f35b3480156103c857600080fd5b506103e360048036038101906103de9190611878565b610e87565b005b3480156103f157600080fd5b5061040c600480360381019061040791906118c1565b610ef4565b6040516104199190611a05565b60405180910390f35b34801561042e57600080fd5b5061044960048036038101906104449190611a42565b610f33565b60405161045691906119ea565b60405180910390f35b61047960048036038101906104749190611a6f565b610f4b565b005b6104836110aa565b005b34801561049157600080fd5b5061049a61117d565b6040516104a79190611a20565b60405180910390f35b80600460008473ffffffffffffffffffffffffffffffffffffffff1673ffffffffffffffffffffffffffffffffffffffff168152602001908152602001600020819055505050565b60606007805480602002602001604051908101604052809291908181526020016000905b8282101561067d57838290600052602060002090600902016040518061012001604052908160008201805461055090611afa565b80601f016020809104026020016040519081016040528092919081815260200182805461057c90611afa565b80156105c95780601f1061059e576101008083540402835291602001916105c9565b820191906000526020600020905b8154815290600101906020018083116105ac57829003601f168201915b505050505081526020016001820160009054906101000a900473ffffffffffffffffffffffffffffffffffffffff1673ffffffffffffffffffffffffffffffffffffffff1673ffffffffffffffffffffffffffffffffffffffff1681526020016002820154815260200160038201548152602001600482015481526020016005820154815260200160068201548152602001600782015481526020016008820154815250508152602001906001019061051c565b50505050905090565b6004600780549050146106ce576040517f08c379a00000000000000000000000000000000000000000000000000000000081526004016106c590611b77565b60405180910390fd5b6000805b60078054905081101561085157600080600783815481106106f6576106f5611b97565b5b90600052602060002090600902016007015414610738576007828154811061072157610720611b97565b5b90600052602060002090600902016007015461073b565b600d5b60006007848154811061075157610750611b97565b5b90600052602060002090600902016005015414610793576007838154811061077c5761077b611b97565b5b906000526020600020906009020160050154610796565b600d5b6000600785815481106107ac576107ab611b97565b5b906000526020600020906009020160030154146107ee57600784815481106107d7576107d6611b97565b5b9060005260206000209060090201600301546107f1565b600d5b6107fb9190611bf5565b6108059190611bf5565b9050806007838154811061081c5761081b611b97565b5b9060005260206000209060090201600801819055508281111561083d578092505b50808061084990611c29565b9150506106d2565b5060005b60078054905081101561094a576007818154811061087657610875611b97565b5b9060005260206000209060090201600801548203610937576005600782815481106108a4576108a3611b97565b5b906000526020600020906009020160010160009054906101000a900473ffffffffffffffffffffffffffffffffffffffff169080600181540180825580915050600190039060005260206000200160009091909190916101000a81548173ffffffffffffffffffffffffffffffffffffffff021916908373ffffffffffffffffffffffffffffffffffffffff1602179055505b808061094290611c29565b915050610855565b50600047600354101561096c57600354476109659190611c71565b905061097d565b4760035461097a9190611c71565b90505b806003600082825461098f9190611bf5565b925050819055506000600580549050826109a99190611cd4565b905060005b600580549050811015610a62578160046000600584815481106109d4576109d3611b97565b5b9060005260206000200160009054906101000a900473ffffffffffffffffffffffffffffffffffffffff1673ffffffffffffffffffffffffffffffffffffffff1673ffffffffffffffffffffffffffffffffffffffff1681526020019081526020016000206000828254610a489190611bf5565b925050819055508080610a5a90611c29565b9150506109ae565b50505050565b60606005805480602002602001604051908101604052809291908181526020018280548015610aec57602002820191906000526020600020905b8160009054906101000a900473ffffffffffffffffffffffffffffffffffffffff1673ffffffffffffffffffffffffffffffffffffffff1681526020019060010190808311610aa2575b5050505050905090565b600660009054906101000a900473ffffffffffffffffffffffffffffffffffffffff1673ffffffffffffffffffffffffffffffffffffffff163373ffffffffffffffffffffffffffffffffffffffff1614610b5057600080fd5b8060029081610b5f9190611eb1565b5050565b60078181548110610b7357600080fd5b9060005260206000209060090201600091509050806000018054610b9690611afa565b80601f0160208091040260200160405190810160405280929190818152602001828054610bc290611afa565b8015610c0f5780601f10610be457610100808354040283529160200191610c0f565b820191906000526020600020905b815481529060010190602001808311610bf257829003601f168201915b5050505050908060010160009054906101000a900473ffffffffffffffffffffffffffffffffffffffff16908060020154908060030154908060040154908060050154908060060154908060070154908060080154905089565b60056000610c77919061120b565b60076000610c85919061122c565b565b600080600d610c94610d36565b610c9e9190611f83565b90508091505090565b600660009054906101000a900473ffffffffffffffffffffffffffffffffffffffff1681565b6000806004610cda610d36565b610ce49190611f83565b90508091505090565b6000600660009054906101000a900473ffffffffffffffffffffffffffffffffffffffff1673ffffffffffffffffffffffffffffffffffffffff1631905090565b600047905090565b6000600160086000828254610d4b9190611bf5565b925050819055504442600854604051602001610d6993929190611fd5565b6040516020818303038152906040528051906020012060001c905090565b60028054610d9490611afa565b80601f0160208091040260200160405190810160405280929190818152602001828054610dc090611afa565b8015610e0d5780601f10610de257610100808354040283529160200191610e0d565b820191906000526020600020905b815481529060010190602001808311610df057829003601f168201915b505050505081565b600660009054906101000a900473ffffffffffffffffffffffffffffffffffffffff1673ffffffffffffffffffffffffffffffffffffffff166108fc829081150290604051600060405180830381858888f19350505050158015610e7d573d6000803e3d6000fd5b5050565b60015481565b600660009054906101000a900473ffffffffffffffffffffffffffffffffffffffff1673ffffffffffffffffffffffffffffffffffffffff163373ffffffffffffffffffffffffffffffffffffffff1614610ee157600080fd5b8060009081610ef09190611eb1565b5050565b60058181548110610f0457600080fd5b906000526020600020016000915054906101000a900473ffffffffffffffffffffffffffffffffffffffff1681565b60046020528060005260406000206000915090505481565b60076040518061012001604052808481526020013373ffffffffffffffffffffffffffffffffffffffff168152602001610f83610ccd565b8152602001610f90610c87565b8152602001610f9d610ccd565b8152602001610faa610c87565b8152602001610fb7610ccd565b8152602001610fc4610c87565b815260200160008152509080600181540180825580915050600190039060005260206000209060090201600090919091909150600082015181600001908161100c9190611eb1565b5060208201518160010160006101000a81548173ffffffffffffffffffffffffffffffffffffffff021916908373ffffffffffffffffffffffffffffffffffffffff16021790555060408201518160020155606082015181600301556080820151816004015560a0820151816005015560c0820151816006015560e08201518160070155610100820151816008015550506110a681610e15565b5050565b6000600460003373ffffffffffffffffffffffffffffffffffffffff1673ffffffffffffffffffffffffffffffffffffffff1681526020019081526020016000205490503373ffffffffffffffffffffffffffffffffffffffff166108fc829081150290604051600060405180830381858888f19350505050158015611134573d6000803e3d6000fd5b506000600460003373ffffffffffffffffffffffffffffffffffffffff1673ffffffffffffffffffffffffffffffffffffffff1681526020019081526020016000208190555050565b6000805461118a90611afa565b80601f01602080910402602001604051908101604052809291908181526020018280546111b690611afa565b80156112035780601f106111d857610100808354040283529160200191611203565b820191906000526020600020905b8154815290600101906020018083116111e657829003601f168201915b505050505081565b50805460008255906000526020600020908101906112299190611250565b50565b508054600082556009029060005260206000209081019061124d919061126d565b50565b5b80821115611269576000816000905550600101611251565b5090565b5b808211156112ef576000808201600061128791906112f3565b6001820160006101000a81549073ffffffffffffffffffffffffffffffffffffffff021916905560028201600090556003820160009055600482016000905560058201600090556006820160009055600782016000905560088201600090555060090161126e565b5090565b5080546112ff90611afa565b6000825580601f106113115750611330565b601f01602090049060005260206000209081019061132f9190611250565b5b50565b6000604051905090565b600080fd5b600080fd5b600073ffffffffffffffffffffffffffffffffffffffff82169050919050565b600061137282611347565b9050919050565b61138281611367565b811461138d57600080fd5b50565b60008135905061139f81611379565b92915050565b6000819050919050565b6113b8816113a5565b81146113c357600080fd5b50565b6000813590506113d5816113af565b92915050565b600080604083850312156113f2576113f161133d565b5b600061140085828601611390565b9250506020611411858286016113c6565b9150509250929050565b600081519050919050565b600082825260208201905092915050565b6000819050602082019050919050565b600081519050919050565b600082825260208201905092915050565b60005b83811015611481578082015181840152602081019050611466565b60008484015250505050565b6000601f19601f8301169050919050565b60006114a982611447565b6114b38185611452565b93506114c3818560208601611463565b6114cc8161148d565b840191505092915050565b6114e081611367565b82525050565b6114ef816113a5565b82525050565b6000610120830160008301518482036000860152611513828261149e565b915050602083015161152860208601826114d7565b50604083015161153b60408601826114e6565b50606083015161154e60608601826114e6565b50608083015161156160808601826114e6565b5060a083015161157460a08601826114e6565b5060c083015161158760c08601826114e6565b5060e083015161159a60e08601826114e6565b506101008301516115af6101008601826114e6565b508091505092915050565b60006115c683836114f5565b905092915050565b6000602082019050919050565b60006115e68261141b565b6115f08185611426565b93508360208202850161160285611437565b8060005b8581101561163e578484038952815161161f85826115ba565b945061162a836115ce565b925060208a01995050600181019050611606565b50829750879550505050505092915050565b6000602082019050818103600083015261166a81846115db565b905092915050565b600081519050919050565b600082825260208201905092915050565b6000819050602082019050919050565b60006116aa83836114d7565b60208301905092915050565b6000602082019050919050565b60006116ce82611672565b6116d8818561167d565b93506116e38361168e565b8060005b838110156117145781516116fb888261169e565b9750611706836116b6565b9250506001810190506116e7565b5085935050505092915050565b6000602082019050818103600083015261173b81846116c3565b905092915050565b600080fd5b600080fd5b7f4e487b7100000000000000000000000000000000000000000000000000000000600052604160045260246000fd5b6117858261148d565b810181811067ffffffffffffffff821117156117a4576117a361174d565b5b80604052505050565b60006117b7611333565b90506117c3828261177c565b919050565b600067ffffffffffffffff8211156117e3576117e261174d565b5b6117ec8261148d565b9050602081019050919050565b82818337600083830152505050565b600061181b611816846117c8565b6117ad565b90508281526020810184848401111561183757611836611748565b5b6118428482856117f9565b509392505050565b600082601f83011261185f5761185e611743565b5b813561186f848260208601611808565b91505092915050565b60006020828403121561188e5761188d61133d565b5b600082013567ffffffffffffffff8111156118ac576118ab611342565b5b6118b88482850161184a565b91505092915050565b6000602082840312156118d7576118d661133d565b5b60006118e5848285016113c6565b91505092915050565b600082825260208201905092915050565b600061190a82611447565b61191481856118ee565b9350611924818560208601611463565b61192d8161148d565b840191505092915050565b61194181611367565b82525050565b611950816113a5565b82525050565b6000610120820190508181036000830152611971818c6118ff565b9050611980602083018b611938565b61198d604083018a611947565b61199a6060830189611947565b6119a76080830188611947565b6119b460a0830187611947565b6119c160c0830186611947565b6119ce60e0830185611947565b6119dc610100830184611947565b9a9950505050505050505050565b60006020820190506119ff6000830184611947565b92915050565b6000602082019050611a1a6000830184611938565b92915050565b60006020820190508181036000830152611a3a81846118ff565b905092915050565b600060208284031215611a5857611a5761133d565b5b6000611a6684828501611390565b91505092915050565b60008060408385031215611a8657611a8561133d565b5b600083013567ffffffffffffffff811115611aa457611aa3611342565b5b611ab08582860161184a565b9250506020611ac1858286016113c6565b9150509250929050565b7f4e487b7100000000000000000000000000000000000000000000000000000000600052602260045260246000fd5b60006002820490506001821680611b1257607f821691505b602082108103611b2557611b24611acb565b5b50919050565b7f4d696e2033207061727469636970656e747320617265207265712e2e2e000000600082015250565b6000611b61601d836118ee565b9150611b6c82611b2b565b602082019050919050565b60006020820190508181036000830152611b9081611b54565b9050919050565b7f4e487b7100000000000000000000000000000000000000000000000000000000600052603260045260246000fd5b7f4e487b7100000000000000000000000000000000000000000000000000000000600052601160045260246000fd5b6000611c00826113a5565b9150611c0b836113a5565b9250828201905080821115611c2357611c22611bc6565b5b92915050565b6000611c34826113a5565b91507fffffffffffffffffffffffffffffffffffffffffffffffffffffffffffffffff8203611c6657611c65611bc6565b5b600182019050919050565b6000611c7c826113a5565b9150611c87836113a5565b9250828203905081811115611c9f57611c9e611bc6565b5b92915050565b7f4e487b7100000000000000000000000000000000000000000000000000000000600052601260045260246000fd5b6000611cdf826113a5565b9150611cea836113a5565b925082611cfa57611cf9611ca5565b5b828204905092915050565b60008190508160005260206000209050919050565b60006020601f8301049050919050565b600082821b905092915050565b600060088302611d677fffffffffffffffffffffffffffffffffffffffffffffffffffffffffffffffff82611d2a565b611d718683611d2a565b95508019841693508086168417925050509392505050565b6000819050919050565b6000611dae611da9611da4846113a5565b611d89565b6113a5565b9050919050565b6000819050919050565b611dc883611d93565b611ddc611dd482611db5565b848454611d37565b825550505050565b600090565b611df1611de4565b611dfc818484611dbf565b505050565b5b81811015611e2057611e15600082611de9565b600181019050611e02565b5050565b601f821115611e6557611e3681611d05565b611e3f84611d1a565b81016020851015611e4e578190505b611e62611e5a85611d1a565b830182611e01565b50505b505050565b600082821c905092915050565b6000611e8860001984600802611e6a565b1980831691505092915050565b6000611ea18383611e77565b9150826002028217905092915050565b611eba82611447565b67ffffffffffffffff811115611ed357611ed261174d565b5b611edd8254611afa565b611ee8828285611e24565b600060209050601f831160018114611f1b5760008415611f09578287015190505b611f138582611e95565b865550611f7b565b601f198416611f2986611d05565b60005b82811015611f5157848901518255600182019150602085019450602081019050611f2c565b86831015611f6e5784890151611f6a601f891682611e77565b8355505b6001600288020188555050505b505050505050565b6000611f8e826113a5565b9150611f99836113a5565b925082611fa957611fa8611ca5565b5b828206905092915050565b6000819050919050565b611fcf611fca826113a5565b611fb4565b82525050565b6000611fe18286611fbe565b602082019150611ff18285611fbe565b6020820191506120018284611fbe565b60208201915081905094935050505056fea2646970667358221220344e52ce94b087a51e8c14c0d265a9626767dec2e2170406032e99f12ccf124664736f6c63430008130033",
  "linkReferences": {},
  "deployedLinkReferences": {}
}