{
  "_format": "hh-sol-artifact-1",
  "contractName": "ThreeCardPoker",
  "sourceName": "contracts/ThreeCardPoker.sol",
  "abi": [
    {
      "inputs": [],
      "stateMutability": "nonpayable",
      "type": "constructor"
    },
    {
      "inputs": [
        {
          "internalType": "address",
          "name": "",
          "type": "address"
        }
      ],
      "name": "Bonus_Users",
      "outputs": [
        {
          "internalType": "uint256",
          "name": "",
          "type": "uint256"
        }
      ],
      "stateMutability": "view",
      "type": "function"
    },
    {
      "inputs": [
        {
          "internalType": "string",
          "name": "_name",
          "type": "string"
        }
      ],
      "name": "Play_poker",
      "outputs": [],
      "stateMutability": "payable",
      "type": "function"
    },
    {
      "inputs": [],
      "name": "Random_CardNum",
      "outputs": [
        {
          "internalType": "uint256",
          "name": "",
          "type": "uint256"
        }
      ],
      "stateMutability": "nonpayable",
      "type": "function"
    },
    {
      "inputs": [],
      "name": "Random_Suit",
      "outputs": [
        {
          "internalType": "uint256",
          "name": "",
          "type": "uint256"
        }
      ],
      "stateMutability": "nonpayable",
      "type": "function"
    },
    {
      "inputs": [],
      "name": "bonus",
      "outputs": [
        {
          "internalType": "uint256",
          "name": "",
          "type": "uint256"
        }
      ],
      "stateMutability": "view",
      "type": "function"
    },
    {
      "inputs": [],
      "name": "exit_game",
      "outputs": [],
      "stateMutability": "nonpayable",
      "type": "function"
    },
    {
      "inputs": [
        {
          "internalType": "uint256",
          "name": "",
          "type": "uint256"
        }
      ],
      "name": "exiting_Users",
      "outputs": [
        {
          "internalType": "address",
          "name": "",
          "type": "address"
        }
      ],
      "stateMutability": "view",
      "type": "function"
    },
    {
      "inputs": [],
      "name": "exiting_players_length",
      "outputs": [
        {
          "internalType": "uint256",
          "name": "",
          "type": "uint256"
        }
      ],
      "stateMutability": "view",
      "type": "function"
    },
    {
      "inputs": [],
      "name": "getContractBal",
      "outputs": [
        {
          "internalType": "uint256",
          "name": "",
          "type": "uint256"
        }
      ],
      "stateMutability": "view",
      "type": "function"
    },
    {
      "inputs": [],
      "name": "getOwnerBalance",
      "outputs": [
        {
          "internalType": "uint256",
          "name": "",
          "type": "uint256"
        }
      ],
      "stateMutability": "view",
      "type": "function"
    },
    {
      "inputs": [],
      "name": "getplayers_arr",
      "outputs": [
        {
          "components": [
            {
              "internalType": "string",
              "name": "name",
              "type": "string"
            },
            {
              "internalType": "address",
              "name": "player_address",
              "type": "address"
            },
            {
              "internalType": "uint256",
              "name": "card_suit1",
              "type": "uint256"
            },
            {
              "internalType": "uint256",
              "name": "card_num1",
              "type": "uint256"
            },
            {
              "internalType": "uint256",
              "name": "card_suit2",
              "type": "uint256"
            },
            {
              "internalType": "uint256",
              "name": "card_num2",
              "type": "uint256"
            },
            {
              "internalType": "uint256",
              "name": "card_suit3",
              "type": "uint256"
            },
            {
              "internalType": "uint256",
              "name": "card_num3",
              "type": "uint256"
            },
            {
              "internalType": "uint256",
              "name": "score",
              "type": "uint256"
            }
          ],
          "internalType": "struct ThreeCardPoker.Player[]",
          "name": "",
          "type": "tuple[]"
        }
      ],
      "stateMutability": "view",
      "type": "function"
    },
    {
      "inputs": [],
      "name": "getwinners_arr",
      "outputs": [
        {
          "internalType": "address[]",
          "name": "",
          "type": "address[]"
        }
      ],
      "stateMutability": "view",
      "type": "function"
    },
    {
      "inputs": [],
      "name": "manager",
      "outputs": [
        {
          "internalType": "address",
          "name": "",
          "type": "address"
        }
      ],
      "stateMutability": "view",
      "type": "function"
    },
    {
      "inputs": [],
      "name": "num_games_played",
      "outputs": [
        {
          "internalType": "uint256",
          "name": "",
          "type": "uint256"
        }
      ],
      "stateMutability": "view",
      "type": "function"
    },
    {
      "inputs": [
        {
          "internalType": "address",
          "name": "",
          "type": "address"
        }
      ],
      "name": "num_games_played_users",
      "outputs": [
        {
          "internalType": "uint256",
          "name": "",
          "type": "uint256"
        }
      ],
      "stateMutability": "view",
      "type": "function"
    },
    {
      "inputs": [],
      "name": "owners_bal",
      "outputs": [
        {
          "internalType": "uint256",
          "name": "",
          "type": "uint256"
        }
      ],
      "stateMutability": "view",
      "type": "function"
    },
    {
      "inputs": [
        {
          "internalType": "uint256",
          "name": "",
          "type": "uint256"
        }
      ],
      "name": "participents",
      "outputs": [
        {
          "internalType": "string",
          "name": "name",
          "type": "string"
        },
        {
          "internalType": "address",
          "name": "player_address",
          "type": "address"
        },
        {
          "internalType": "uint256",
          "name": "card_suit1",
          "type": "uint256"
        },
        {
          "internalType": "uint256",
          "name": "card_num1",
          "type": "uint256"
        },
        {
          "internalType": "uint256",
          "name": "card_suit2",
          "type": "uint256"
        },
        {
          "internalType": "uint256",
          "name": "card_num2",
          "type": "uint256"
        },
        {
          "internalType": "uint256",
          "name": "card_suit3",
          "type": "uint256"
        },
        {
          "internalType": "uint256",
          "name": "card_num3",
          "type": "uint256"
        },
        {
          "internalType": "uint256",
          "name": "score",
          "type": "uint256"
        }
      ],
      "stateMutability": "view",
      "type": "function"
    },
    {
      "inputs": [
        {
          "internalType": "uint256",
          "name": "val",
          "type": "uint256"
        }
      ],
      "name": "payplatformfee",
      "outputs": [],
      "stateMutability": "payable",
      "type": "function"
    },
    {
      "inputs": [],
      "name": "platformfee",
      "outputs": [
        {
          "internalType": "uint256",
          "name": "",
          "type": "uint256"
        }
      ],
      "stateMutability": "view",
      "type": "function"
    },
    {
      "inputs": [],
      "name": "random",
      "outputs": [
        {
          "internalType": "uint256",
          "name": "",
          "type": "uint256"
        }
      ],
      "stateMutability": "nonpayable",
      "type": "function"
    },
    {
      "inputs": [
        {
          "internalType": "address",
          "name": "",
          "type": "address"
        }
      ],
      "name": "registered_Users",
      "outputs": [
        {
          "internalType": "uint256",
          "name": "",
          "type": "uint256"
        }
      ],
      "stateMutability": "view",
      "type": "function"
    },
    {
      "inputs": [],
      "name": "select_Winner",
      "outputs": [],
      "stateMutability": "payable",
      "type": "function"
    },
    {
      "inputs": [
        {
          "internalType": "uint256",
          "name": "_bonus",
          "type": "uint256"
        }
      ],
      "name": "setBonus",
      "outputs": [],
      "stateMutability": "nonpayable",
      "type": "function"
    },
    {
      "inputs": [
        {
          "internalType": "uint256",
          "name": "pfee",
          "type": "uint256"
        }
      ],
      "name": "setPlatformfee",
      "outputs": [],
      "stateMutability": "nonpayable",
      "type": "function"
    },
    {
      "inputs": [],
      "name": "transfer_bet_from_game_to_acc",
      "outputs": [],
      "stateMutability": "payable",
      "type": "function"
    },
    {
      "inputs": [],
      "name": "transfer_bonus_from_contract_to_acc",
      "outputs": [],
      "stateMutability": "payable",
      "type": "function"
    },
    {
      "inputs": [
        {
          "internalType": "address",
          "name": "acc",
          "type": "address"
        },
        {
          "internalType": "uint256",
          "name": "val",
          "type": "uint256"
        }
      ],
      "name": "update_wallet",
      "outputs": [],
      "stateMutability": "nonpayable",
      "type": "function"
    },
    {
      "inputs": [
        {
          "internalType": "uint256",
          "name": "",
          "type": "uint256"
        }
      ],
      "name": "winners",
      "outputs": [
        {
          "internalType": "address",
          "name": "",
          "type": "address"
        }
      ],
      "stateMutability": "view",
      "type": "function"
    }
  ],
  "bytecode": "0x608060405260008060006101000a81548160ff0219169083151502179055506000600c5534801561002f57600080fd5b5033600a60006101000a81548173ffffffffffffffffffffffffffffffffffffffff021916908373ffffffffffffffffffffffffffffffffffffffff16021790555060006001819055506000600281905550600060038190555061242a806100986000396000f3fe6080604052600436106101b75760003560e01c80636f5d4dbb116100ec578063a2fb11751161008a578063cf8ec40511610064578063cf8ec4051461057b578063ee3b99a8146105b8578063f4488f46146105e1578063f92fbcc01461060c576101b7565b8063a2fb1175146104f7578063a97f82f014610534578063cb1baa4314610571576101b7565b80637d0e415f116100c65780637d0e415f1461047b5780638ee7c1a6146104975780639b077072146104c2578063a17be9a5146104cc576101b7565b80636f5d4dbb1461040957806375b4d78c146104345780637b5009a81461045f576101b7565b80633ee88d6e116101595780635718b76b116101335780635718b76b1461035d578063590791f2146103885780635d9fa6fc146103b35780635ec01e4d146103de576101b7565b80633ee88d6e146102f057806343991da114610307578063481c6a7514610332576101b7565b806325ee61621161019557806325ee6162146102395780632ac75ab51461027657806330c5595b146102805780633bfcd7c5146102ab576101b7565b80630768eca9146101bc5780630b98f975146101e55780632095eb771461020e575b600080fd5b3480156101c857600080fd5b506101e360048036038101906101de91906117f9565b610649565b005b3480156101f157600080fd5b5061020c60048036038101906102079190611839565b610691565b005b34801561021a57600080fd5b506102236106f5565b6040516102309190611a9b565b60405180910390f35b34801561024557600080fd5b50610260600480360381019061025b9190611abd565b610883565b60405161026d9190611af9565b60405180910390f35b61027e61089b565b005b34801561028c57600080fd5b50610295610dff565b6040516102a29190611bc3565b60405180910390f35b3480156102b757600080fd5b506102d260048036038101906102cd9190611839565b610e8d565b6040516102e799989796959493929190611c3e565b60405180910390f35b3480156102fc57600080fd5b50610305610f93565b005b34801561031357600080fd5b5061031c61104a565b6040516103299190611af9565b60405180910390f35b34801561033e57600080fd5b5061034761106a565b6040516103549190611cd2565b60405180910390f35b34801561036957600080fd5b50610372611090565b60405161037f9190611af9565b60405180910390f35b34801561039457600080fd5b5061039d6110b0565b6040516103aa9190611af9565b60405180910390f35b3480156103bf57600080fd5b506103c86110f1565b6040516103d59190611af9565b60405180910390f35b3480156103ea57600080fd5b506103f36110f9565b6040516104009190611af9565b60405180910390f35b34801561041557600080fd5b5061041e61114a565b60405161042b9190611af9565b60405180910390f35b34801561044057600080fd5b50610449611191565b6040516104569190611af9565b60405180910390f35b61047960048036038101906104749190611839565b611197565b005b61049560048036038101906104909190611e22565b611203565b005b3480156104a357600080fd5b506104ac611358565b6040516104b99190611af9565b60405180910390f35b6104ca611365565b005b3480156104d857600080fd5b506104e1611438565b6040516104ee9190611af9565b60405180910390f35b34801561050357600080fd5b5061051e60048036038101906105199190611839565b61143e565b60405161052b9190611cd2565b60405180910390f35b34801561054057600080fd5b5061055b60048036038101906105569190611abd565b61147d565b6040516105689190611af9565b60405180910390f35b610579611495565b005b34801561058757600080fd5b506105a2600480360381019061059d9190611839565b611568565b6040516105af9190611cd2565b60405180910390f35b3480156105c457600080fd5b506105df60048036038101906105da9190611839565b6115a7565b005b3480156105ed57600080fd5b506105f661160b565b6040516106039190611af9565b60405180910390f35b34801561061857600080fd5b50610633600480360381019061062e9190611abd565b611611565b6040516106409190611af9565b60405180910390f35b80600560008473ffffffffffffffffffffffffffffffffffffffff1673ffffffffffffffffffffffffffffffffffffffff168152602001908152602001600020819055505050565b600a60009054906101000a900473ffffffffffffffffffffffffffffffffffffffff1673ffffffffffffffffffffffffffffffffffffffff163373ffffffffffffffffffffffffffffffffffffffff16146106eb57600080fd5b8060038190555050565b6060600b805480602002602001604051908101604052809291908181526020016000905b8282101561087a57838290600052602060002090600902016040518061012001604052908160008201805461074d90611e9a565b80601f016020809104026020016040519081016040528092919081815260200182805461077990611e9a565b80156107c65780601f1061079b576101008083540402835291602001916107c6565b820191906000526020600020905b8154815290600101906020018083116107a957829003601f168201915b505050505081526020016001820160009054906101000a900473ffffffffffffffffffffffffffffffffffffffff1673ffffffffffffffffffffffffffffffffffffffff1673ffffffffffffffffffffffffffffffffffffffff16815260200160028201548152602001600382015481526020016004820154815260200160058201548152602001600682015481526020016007820154815260200160088201548152505081526020019060010190610719565b50505050905090565b60066020528060005260406000206000915090505481565b6004600b80549050146108e3576040517f08c379a00000000000000000000000000000000000000000000000000000000081526004016108da90611f17565b60405180910390fd5b6000805b600b80549050811015610a6657600080600b838154811061090b5761090a611f37565b5b9060005260206000209060090201600701541461094d57600b828154811061093657610935611f37565b5b906000526020600020906009020160070154610950565b600d5b6000600b848154811061096657610965611f37565b5b906000526020600020906009020160050154146109a857600b838154811061099157610990611f37565b5b9060005260206000209060090201600501546109ab565b600d5b6000600b85815481106109c1576109c0611f37565b5b90600052602060002090600902016003015414610a0357600b84815481106109ec576109eb611f37565b5b906000526020600020906009020160030154610a06565b600d5b610a109190611f95565b610a1a9190611f95565b905080600b8381548110610a3157610a30611f37565b5b90600052602060002090600902016008018190555082811115610a52578092505b508080610a5e90611fc9565b9150506108e7565b5060005b600b80549050811015610b5f57600b8181548110610a8b57610a8a611f37565b5b9060005260206000209060090201600801548203610b4c576009600b8281548110610ab957610ab8611f37565b5b906000526020600020906009020160010160009054906101000a900473ffffffffffffffffffffffffffffffffffffffff169080600181540180825580915050600190039060005260206000200160009091909190916101000a81548173ffffffffffffffffffffffffffffffffffffffff021916908373ffffffffffffffffffffffffffffffffffffffff1602179055505b8080610b5790611fc9565b915050610a6a565b506001600660003373ffffffffffffffffffffffffffffffffffffffff1673ffffffffffffffffffffffffffffffffffffffff1681526020019081526020016000206000828254610bb09190611f95565b9250508190555060006005600660003373ffffffffffffffffffffffffffffffffffffffff1673ffffffffffffffffffffffffffffffffffffffff16815260200190815260200160002054610c059190612040565b03610c6357600354600760003373ffffffffffffffffffffffffffffffffffffffff1673ffffffffffffffffffffffffffffffffffffffff1681526020019081526020016000206000828254610c5b9190611f95565b925050819055505b6000151560008054906101000a900460ff16151503610dfc576000476004541015610cb6576004546001546004610c9a9190612071565b47610ca591906120b3565b610caf91906120b3565b9050610ce0565b6001546004610cc59190612071565b47600454610cd391906120b3565b610cdd91906120b3565b90505b6001546004610cef9190612071565b81610cfa9190611f95565b60046000828254610d0b9190611f95565b92505081905550600060098054905082610d2591906120e7565b905060005b600980549050811015610dde57816005600060098481548110610d5057610d4f611f37565b5b9060005260206000200160009054906101000a900473ffffffffffffffffffffffffffffffffffffffff1673ffffffffffffffffffffffffffffffffffffffff1673ffffffffffffffffffffffffffffffffffffffff1681526020019081526020016000206000828254610dc49190611f95565b925050819055508080610dd690611fc9565b915050610d2a565b5060016000806101000a81548160ff02191690831515021790555050505b50565b60606009805480602002602001604051908101604052809291908181526020018280548015610e8357602002820191906000526020600020905b8160009054906101000a900473ffffffffffffffffffffffffffffffffffffffff1673ffffffffffffffffffffffffffffffffffffffff1681526020019060010190808311610e39575b5050505050905090565b600b8181548110610e9d57600080fd5b9060005260206000209060090201600091509050806000018054610ec090611e9a565b80601f0160208091040260200160405190810160405280929190818152602001828054610eec90611e9a565b8015610f395780601f10610f0e57610100808354040283529160200191610f39565b820191906000526020600020905b815481529060010190602001808311610f1c57829003601f168201915b5050505050908060010160009054906101000a900473ffffffffffffffffffffffffffffffffffffffff16908060020154908060030154908060040154908060050154908060060154908060070154908060080154905089565b60096000610fa19190611629565b6008339080600181540180825580915050600190039060005260206000200160009091909190916101000a81548173ffffffffffffffffffffffffffffffffffffffff021916908373ffffffffffffffffffffffffffffffffffffffff16021790555060046008805490500361104857600b600061101f919061164a565b60008060006101000a81548160ff021916908315150217905550600860006110479190611629565b5b565b600080600d6110576110f9565b6110619190612040565b90508091505090565b600a60009054906101000a900473ffffffffffffffffffffffffffffffffffffffff1681565b600080600461109d6110f9565b6110a79190612040565b90508091505090565b6000600a60009054906101000a900473ffffffffffffffffffffffffffffffffffffffff1673ffffffffffffffffffffffffffffffffffffffff1631905090565b600047905090565b60006001600c600082825461110e9190611f95565b925050819055504442600c5460405160200161112c93929190612139565b6040516020818303038152906040528051906020012060001c905090565b6000600660003373ffffffffffffffffffffffffffffffffffffffff1673ffffffffffffffffffffffffffffffffffffffff16815260200190815260200160002054905090565b60035481565b600a60009054906101000a900473ffffffffffffffffffffffffffffffffffffffff1673ffffffffffffffffffffffffffffffffffffffff166108fc829081150290604051600060405180830381858888f193505050501580156111ff573d6000803e3d6000fd5b5050565b600b6040518061012001604052808381526020013373ffffffffffffffffffffffffffffffffffffffff16815260200161123b611090565b815260200161124861104a565b8152602001611255611090565b815260200161126261104a565b815260200161126f611090565b815260200161127c61104a565b81526020016000815250908060018154018082558091505060019003906000526020600020906009020160009091909190915060008201518160000190816112c49190612322565b5060208201518160010160006101000a81548173ffffffffffffffffffffffffffffffffffffffff021916908373ffffffffffffffffffffffffffffffffffffffff16021790555060408201518160020155606082015181600301556080820151816004015560a0820151816005015560c0820151816006015560e082015181600701556101008201518160080155505050565b6000600880549050905090565b6000600760003373ffffffffffffffffffffffffffffffffffffffff1673ffffffffffffffffffffffffffffffffffffffff1681526020019081526020016000205490503373ffffffffffffffffffffffffffffffffffffffff166108fc829081150290604051600060405180830381858888f193505050501580156113ef573d6000803e3d6000fd5b506000600760003373ffffffffffffffffffffffffffffffffffffffff1673ffffffffffffffffffffffffffffffffffffffff1681526020019081526020016000208190555050565b60025481565b6009818154811061144e57600080fd5b906000526020600020016000915054906101000a900473ffffffffffffffffffffffffffffffffffffffff1681565b60056020528060005260406000206000915090505481565b6000600560003373ffffffffffffffffffffffffffffffffffffffff1673ffffffffffffffffffffffffffffffffffffffff1681526020019081526020016000205490503373ffffffffffffffffffffffffffffffffffffffff166108fc829081150290604051600060405180830381858888f1935050505015801561151f573d6000803e3d6000fd5b506000600560003373ffffffffffffffffffffffffffffffffffffffff1673ffffffffffffffffffffffffffffffffffffffff1681526020019081526020016000208190555050565b6008818154811061157857600080fd5b906000526020600020016000915054906101000a900473ffffffffffffffffffffffffffffffffffffffff1681565b600a60009054906101000a900473ffffffffffffffffffffffffffffffffffffffff1673ffffffffffffffffffffffffffffffffffffffff163373ffffffffffffffffffffffffffffffffffffffff161461160157600080fd5b8060018190555050565b60015481565b60076020528060005260406000206000915090505481565b5080546000825590600052602060002090810190611647919061166e565b50565b508054600082556009029060005260206000209081019061166b919061168b565b50565b5b8082111561168757600081600090555060010161166f565b5090565b5b8082111561170d57600080820160006116a59190611711565b6001820160006101000a81549073ffffffffffffffffffffffffffffffffffffffff021916905560028201600090556003820160009055600482016000905560058201600090556006820160009055600782016000905560088201600090555060090161168c565b5090565b50805461171d90611e9a565b6000825580601f1061172f575061174e565b601f01602090049060005260206000209081019061174d919061166e565b5b50565b6000604051905090565b600080fd5b600080fd5b600073ffffffffffffffffffffffffffffffffffffffff82169050919050565b600061179082611765565b9050919050565b6117a081611785565b81146117ab57600080fd5b50565b6000813590506117bd81611797565b92915050565b6000819050919050565b6117d6816117c3565b81146117e157600080fd5b50565b6000813590506117f3816117cd565b92915050565b600080604083850312156118105761180f61175b565b5b600061181e858286016117ae565b925050602061182f858286016117e4565b9150509250929050565b60006020828403121561184f5761184e61175b565b5b600061185d848285016117e4565b91505092915050565b600081519050919050565b600082825260208201905092915050565b6000819050602082019050919050565b600081519050919050565b600082825260208201905092915050565b60005b838110156118cc5780820151818401526020810190506118b1565b60008484015250505050565b6000601f19601f8301169050919050565b60006118f482611892565b6118fe818561189d565b935061190e8185602086016118ae565b611917816118d8565b840191505092915050565b61192b81611785565b82525050565b61193a816117c3565b82525050565b600061012083016000830151848203600086015261195e82826118e9565b91505060208301516119736020860182611922565b5060408301516119866040860182611931565b5060608301516119996060860182611931565b5060808301516119ac6080860182611931565b5060a08301516119bf60a0860182611931565b5060c08301516119d260c0860182611931565b5060e08301516119e560e0860182611931565b506101008301516119fa610100860182611931565b508091505092915050565b6000611a118383611940565b905092915050565b6000602082019050919050565b6000611a3182611866565b611a3b8185611871565b935083602082028501611a4d85611882565b8060005b85811015611a895784840389528151611a6a8582611a05565b9450611a7583611a19565b925060208a01995050600181019050611a51565b50829750879550505050505092915050565b60006020820190508181036000830152611ab58184611a26565b905092915050565b600060208284031215611ad357611ad261175b565b5b6000611ae1848285016117ae565b91505092915050565b611af3816117c3565b82525050565b6000602082019050611b0e6000830184611aea565b92915050565b600081519050919050565b600082825260208201905092915050565b6000819050602082019050919050565b6000611b4c8383611922565b60208301905092915050565b6000602082019050919050565b6000611b7082611b14565b611b7a8185611b1f565b9350611b8583611b30565b8060005b83811015611bb6578151611b9d8882611b40565b9750611ba883611b58565b925050600181019050611b89565b5085935050505092915050565b60006020820190508181036000830152611bdd8184611b65565b905092915050565b600082825260208201905092915050565b6000611c0182611892565b611c0b8185611be5565b9350611c1b8185602086016118ae565b611c24816118d8565b840191505092915050565b611c3881611785565b82525050565b6000610120820190508181036000830152611c59818c611bf6565b9050611c68602083018b611c2f565b611c75604083018a611aea565b611c826060830189611aea565b611c8f6080830188611aea565b611c9c60a0830187611aea565b611ca960c0830186611aea565b611cb660e0830185611aea565b611cc4610100830184611aea565b9a9950505050505050505050565b6000602082019050611ce76000830184611c2f565b92915050565b600080fd5b600080fd5b7f4e487b7100000000000000000000000000000000000000000000000000000000600052604160045260246000fd5b611d2f826118d8565b810181811067ffffffffffffffff82111715611d4e57611d4d611cf7565b5b80604052505050565b6000611d61611751565b9050611d6d8282611d26565b919050565b600067ffffffffffffffff821115611d8d57611d8c611cf7565b5b611d96826118d8565b9050602081019050919050565b82818337600083830152505050565b6000611dc5611dc084611d72565b611d57565b905082815260208101848484011115611de157611de0611cf2565b5b611dec848285611da3565b509392505050565b600082601f830112611e0957611e08611ced565b5b8135611e19848260208601611db2565b91505092915050565b600060208284031215611e3857611e3761175b565b5b600082013567ffffffffffffffff811115611e5657611e55611760565b5b611e6284828501611df4565b91505092915050565b7f4e487b7100000000000000000000000000000000000000000000000000000000600052602260045260246000fd5b60006002820490506001821680611eb257607f821691505b602082108103611ec557611ec4611e6b565b5b50919050565b7f34207061727469636970616e7473206f6e6c7920616c6c6f7765642e2e2e0000600082015250565b6000611f01601e83611be5565b9150611f0c82611ecb565b602082019050919050565b60006020820190508181036000830152611f3081611ef4565b9050919050565b7f4e487b7100000000000000000000000000000000000000000000000000000000600052603260045260246000fd5b7f4e487b7100000000000000000000000000000000000000000000000000000000600052601160045260246000fd5b6000611fa0826117c3565b9150611fab836117c3565b9250828201905080821115611fc357611fc2611f66565b5b92915050565b6000611fd4826117c3565b91507fffffffffffffffffffffffffffffffffffffffffffffffffffffffffffffffff820361200657612005611f66565b5b600182019050919050565b7f4e487b7100000000000000000000000000000000000000000000000000000000600052601260045260246000fd5b600061204b826117c3565b9150612056836117c3565b92508261206657612065612011565b5b828206905092915050565b600061207c826117c3565b9150612087836117c3565b9250828202612095816117c3565b915082820484148315176120ac576120ab611f66565b5b5092915050565b60006120be826117c3565b91506120c9836117c3565b92508282039050818111156120e1576120e0611f66565b5b92915050565b60006120f2826117c3565b91506120fd836117c3565b92508261210d5761210c612011565b5b828204905092915050565b6000819050919050565b61213361212e826117c3565b612118565b82525050565b60006121458286612122565b6020820191506121558285612122565b6020820191506121658284612122565b602082019150819050949350505050565b60008190508160005260206000209050919050565b60006020601f8301049050919050565b600082821b905092915050565b6000600883026121d87fffffffffffffffffffffffffffffffffffffffffffffffffffffffffffffffff8261219b565b6121e2868361219b565b95508019841693508086168417925050509392505050565b6000819050919050565b600061221f61221a612215846117c3565b6121fa565b6117c3565b9050919050565b6000819050919050565b61223983612204565b61224d61224582612226565b8484546121a8565b825550505050565b600090565b612262612255565b61226d818484612230565b505050565b5b818110156122915761228660008261225a565b600181019050612273565b5050565b601f8211156122d6576122a781612176565b6122b08461218b565b810160208510156122bf578190505b6122d36122cb8561218b565b830182612272565b50505b505050565b600082821c905092915050565b60006122f9600019846008026122db565b1980831691505092915050565b600061231283836122e8565b9150826002028217905092915050565b61232b82611892565b67ffffffffffffffff81111561234457612343611cf7565b5b61234e8254611e9a565b612359828285612295565b600060209050601f83116001811461238c576000841561237a578287015190505b6123848582612306565b8655506123ec565b601f19841661239a86612176565b60005b828110156123c25784890151825560018201915060208501945060208101905061239d565b868310156123df57848901516123db601f8916826122e8565b8355505b6001600288020188555050505b50505050505056fea2646970667358221220878bb2ade71ea45f9a1e8e24a9cd8059a18b2be31ec14ec7642be57a34f4c70964736f6c63430008130033",
  "linkReferences": {},
  "deployedLinkReferences": {}
}